:020000040800F2
:100000004007002045010008B1190008B319000895
:10001000B7190008BB190008BF190008000000004C
:10002000000000000000000000000000C3190008EC
:10003000C519000800000000C7190008C919000808
:100040005F0100085F0100085F0100085F01000810
:100050005F0100085F0100085F0100085F01000800
:100060005F0100085F0100085F0100085F010008F0
:100070005F0100085F0100085F0100085F010008E0
:100080005F0100085F0100085F0100085F010008D0
:100090005F0100085F0100085F0100085F010008C0
:1000A0005F0100085F0100085F0100085F010008B0
:1000B0005F0100085F0100085F0100085F010008A0
:1000C0005F0100085F0100085F0100085F01000890
:1000D0005F0100085F0100085F0100085F01000880
:1000E0005F0100085F0100085F0100085F01000870
:1000F0005F0100085F0100085F0100085F01000860
:100100005F0100085F0100085F0100085F0100084F
:100110005F0100085F0100085F0100085F0100083F
:100120005F0100085F0100085F0100085F0100082F
:10013000DFF80CD002F072FD004800477916000885
:10014000400700200648804706480047FEE7FEE7D4
:10015000FEE7FEE7FEE7FEE7FEE7FEE7FEE7FEE777
:1001600047020008310100080CB500200190009002
:100170006C48006840F480306A49086000BF6948F4
:10018000006800F4003000900198401C0190009835
:1001900018B90198B0F5A06FF1D16248006800F479
:1001A000003010B10120009001E000200090009884
:1001B000012843D15C48006840F010005A490860AB
:1001C0000846006820F0030008600846006840F018
:1001D0000200086053484068524948600846406839
:1001E00048600846406840F48060486008464068BF
:1001F00020F47C1048600846406840F4E8104860ED
:100200000846006840F08070086000BF45480068FC
:1002100000F000700028F9D04248406820F0030048
:10022000404948600846406840F00200486000BF0E
:100230003C48406800F00C000828F9D10CBD10B50E
:10024000FFF792FF10BD10B53648006840F001007E
:1002500034490860084640683449084031494860DC
:1002600008460068324908402E4908600846006880
:1002700020F4802008600846406820F4FE004860B2
:100280004FF41F008860FFF7DAFF4FF00060294944
:10029000086010BD10B5002100200022214B5B68D2
:1002A00003F00C0121B1042906D0082928D107E068
:1002B000214B224C236027E01F4B204C236023E07E
:1002C000184B5B6803F47010164B5B6803F48032C4
:1002D000022303EB904022B9194B4343174C236090
:1002E0000DE0104B5B6803F4003323B1144B434320
:1002F000124C236003E0104B4343104C236003E097
:100300000D4B0E4C236000BF00BF064B5B68C3F370
:1003100003130C4CE15C094B1B68CB40074C23607A
:1003200010BD000000100240002002400000FFF855
:10033000FFFFF6FE08ED00E000127A00000000204A
:1003400000093D000400002031490143314A116099
:10035000704770B5002100230F22C47804B32D4CE0
:10036000246804F4E064C4F5E064210AC1F10403E4
:10037000CA40447804FA03F1847814402143090107
:10038000254C0678A155047804F01F050124AC40E3
:1003900005786D11AD0005F1E025C5F8004109E0D3
:1003A000047804F01F050124AC401C4D067876113A
:1003B00045F8264070BD1A4A0A400243154B1B1FE0
:1003C0001A60704739B1134A121D12680243114B6B
:1003D0001B1D1A6006E00F4A121D126882430D4B66
:1003E0001B1D1A607047042808D14FF0E0210969ED
:1003F00041F004014FF0E022116107E04FF0E021ED
:10040000096921F004014FF0E022116170470000FA
:100410000000FA050CED00E000E400E080E100E0FF
:1004200080FFFF1F10B50446FA48844208D101211D
:10043000401500F07FFE0021601500F07BFE17E004
:10044000F548844208D10121001500F073FE002117
:10045000201500F06FFE0BE0F048844208D1012126
:10046000C80300F067FE00214FF4004000F062FE78
:1004700010BD30B50246002000235068E84C2040F3
:100480000D790C6844EA0524204350609068E54CDF
:100490002040D1E902542C434D7944EA45042043DD
:1004A0009060D06A20F470000C7C641EE4B2234398
:1004B00040EA0350D06230BD0021016001714171FA
:1004C0008160C16001210174704721B1826842F0EE
:1004D0000102826003E0826822F0010282607047BC
:1004E00021B1826842F48072826003E0826822F463
:1004F00080728260704710B50023CBB21AB1446895
:100500001C43446002E044689C43446010BD816821
:1005100041F0080181607047014600208A6802F0BE
:1005200008020AB1012000E000207047816841F014
:10053000040181607047014600208A6802F00402CD
:100540000AB1012000E00020704721B1826842F426
:10055000A002826003E0826822F4A00282607047F9
:10056000014600208A6802F480020AB1012000E0FE
:100570000020704710B50A4600210023416821F48D
:100580006041531E41EA4331416010BD21B14268D0
:1005900042F40062426003E0426822F4006242607A
:1005A0007047F0B504460D4600200021092D11DDED
:1005B000E068A5F10A0606EB4607072606FA07F1EA
:1005C0008843A5F10A0606EB460603FA06F108433E
:1005D000E0600CE0206905EB4507072606FA07F105
:1005E000884305EB450603FA06F108432061072A14
:1005F0000FDA606B561E06EB86071F2606FA07F118
:100600008843561E06EB860605FA06F1084360632A
:1006100022E00D2A0FDA206BD61F06EB86071F2675
:1006200006FA07F18843D61F06EB860605FA06F19F
:100630000843206310E0E06AA2F10D0606EB86078E
:100640001F2606FA07F18843A2F10D0606EB86067F
:1006500005FA06F10843E062F0BD21B1826842F478
:100660008012826003E0826822F480128260704708
:100670000146C86C80B2704766484C3000687047CD
:1006800021B1426842F48062426003E0426822F491
:1006900080624260704721B1426842F480524260F9
:1006A00003E0426822F48052426070470A4600210B
:1006B000816821F4E04111438160704721B1826873
:1006C00042F40042826003E0826822F400428260C9
:1006D000704721B1826842F40212826003E08268AE
:1006E00022F4021282607047014600208A6802F4F8
:1006F00000120AB1012000E000207047F0B5044666
:100700001546002000220026092911DDE068A1F12C
:100710000A0707EB470C072707FA0CF29043A1F1F1
:100720000A0707EB470703FA07F21043E0600CE003
:10073000206901EB410C072707FA0CF2904301EB0B
:10074000410703FA07F210432061A06BC0F3015682
:10075000EF1C06F1010CA7EB0C0707EB870C1F271A
:1007600007FA0CF29043EF1C06F1010CA7EB0C0703
:1007700007EB870701FA07F21043A063F0BD10B53D
:100780000A4600210023816B21F44011531E41EAE7
:100790000351816310BD08B5002300930090009BB6
:1007A0000B440093009B1A6008BD08B50246002068
:1007B0000090009201F12800009B184400900098DE
:1007C000006880B208BD0A4600214168164B1940F6
:1007D0001143416070474162826270470A460021BE
:1007E000416821F01F0111434160704740B1094940
:1007F0000831096841F40001064A0832116007E037
:1008000004490831096821F40001024A08321160E4
:10081000704700000024014000280140003C0140D6
:10082000FFFEF0FFFDF7F1FFFFFD3FFF0246002056
:1008300013680B400BB1012000E000207047CA4351
:100840000260704770B502460020002300240B129E
:100850005568CEB205EA060415681D4015B10CB105
:10086000012000E0002070BD00220A12D343036083
:100870007047000001684FF6FE72114001600021D0
:10088000016041608160C1608D49884208D18C4916
:100890000839496841F00F01894A083A51608AE0F5
:1008A00087491431884208D185490839496841F09F
:1008B000F001834A083A51607DE08149283188423D
:1008C00008D17F490839496841F470617C4A083A87
:1008D000516070E07A493C31884208D17849083942
:1008E000496841F47041764A083A516063E07449BE
:1008F0005031884208D172490839496841F4702161
:100900006F4A083A516056E06D496431884208D117
:100910006B490839496841F47001694A083A5160E5
:1009200049E067497831884208D165490839496802
:1009300041F07061624A083A51603CE06149884286
:1009400006D1011F096841F00F01021F116032E05A
:100950005C491431884208D15A49091F096841F09D
:10096000F001584A121F116025E05649283188428B
:1009700008D15449091F096841F47061514A121F96
:10098000116018E04F493C31884208D14D49091F98
:10099000096841F470414B4A121F11600BE049494C
:1009A0005031884207D14749091F096841F4702135
:1009B000444A121F1160704710B50022026847F6C2
:1009C000F0739A430C6A8B6823430C6923434C6988
:1009D00023438C692343CC6923434C6A23438C6AA9
:1009E00023431A430260CB6843600B6883604B6803
:1009F000C36010BD0021016041608160C160016180
:100A000041618161C161016241628162704721B1CE
:100A1000026842F00102026004E002684FF6FE73D1
:100A20001A40026070471AB103680B43036002E08A
:100A300003688B4303607047416070470146486814
:100A400080B2704701460020002201F080531BB1A4
:100A50001C4B083B1A6802E0194B083B1A6802EA73
:100A600001030BB1012000E00020704700F080512D
:100A700019B11449091F086002E01149083948609A
:100A8000704701460020002201F080531BB10D4B3E
:100A9000083B1A6802E00A4B083B1A6802EA0103A5
:100AA0000BB1012000E00020704700F0805119B127
:100AB0000449091F086002E001490839486070478D
:100AC000080002400804024010B50446CC488442A5
:100AD00008D10121042000F02DFB0021042000F0AA
:100AE00029FB46E0C748844208D10121082000F0D4
:100AF00021FB0021082000F01DFB3AE0C24884429F
:100B000008D10121102000F015FB0021102000F079
:100B100011FB2EE0BD48844208D10121202000F0C5
:100B200009FB0021202000F005FB22E0B8488442A8
:100B300008D10121402000F0FDFA0021402000F002
:100B4000F9FA16E0B348844208D10121802000F070
:100B5000F1FA0021802000F0EDFA0AE0AE4884426C
:100B600007D10121801500F0E5FA0021A01500F061
:100B7000E1FA10BD10B50121084600F0DBFA0021B2
:100B8000012000F0D7FA10BD2DE9F0410246002502
:100B90000026002000230024002791F803C00CF059
:100BA0000F0591F803C00CF0100CBCF1000F03D03E
:100BB00091F802C04CEA050591F800C0BCF1000FA5
:100BC00031D0146800202BE04FF0010C0CFA00F338
:100BD000B1F800C00CEA03069E4220D183004FF01A
:100BE0000F0C0CFA03F7BC4305FA03FC4CEA0404AF
:100BF00091F803C0BCF1280F06D14FF0010C0CFA9C
:100C000000FCC2F814C00AE091F803C0BCF1480F20
:100C100005D14FF0010C0CFA00FCC2F810C0401CCA
:100C20000828D1D31460B1F800C0BCF1FF0F34DD47
:100C3000546800202EE000F1080C4FF0010808FA7B
:100C40000CF3B1F800C00CEA03069E4221D18300E8
:100C50004FF00F0C0CFA03F7BC4305FA03FC4CEA07
:100C6000040491F803C0BCF1280F05D100F1080C71
:100C700008FA0CF8C2F8148091F803C0BCF1480FD0
:100C800007D100F1080C4FF0010808FA0CF8C2F87F
:100C90001080401C0828CED35460BDE8F0814FF688
:100CA000FF710180022181700421C17070470246EA
:100CB000002093680B400BB1012000E0002070473A
:100CC0000146886880B2704702460020D3680B4016
:100CD0000BB1012000E0002070470146C86880B2D7
:100CE000704701617047416170470AB1016100E0DE
:100CF00041617047C16070474FF480320A4382619E
:100D00008161826182698269704702460020434B9B
:100D100018684FF68073184040EA021008433F4BB2
:100D2000186070473E49C8617047F0B50A46002315
:100D300000240021002500F00046B6F1004F02D14A
:100D4000364EF16901E0354E7168C0F3034583B258
:100D500000F44016B6F5401F08D121F070612F4E07
:100D6000766826F070662D4F7E6012E000F48016E3
:100D7000B6F5801F06D1032606FA05F4A14341F01B
:100D8000706106E0460D360103FA06F6B14341F004
:100D9000706122B1460D360103FA06F6314300F0C8
:100DA0000046B6F1004F02D11C4EF16101E01B4E2E
:100DB0007160F0BD30B500228B071C0F0F2303FAC2
:100DC00004F2164B08338C1053F824309343134C21
:100DD00008348D1044F8253023468C1053F8243005
:100DE0008C07240F00FA04F423430C4C08348D10B4
:100DF00044F8253030BD0A49DC31086070470000F6
:100E000000080140000C01400010014000140140A6
:100E100000180140001C014000200140000001407A
:100E200000002042DF48006840F00100DD49086012
:100E300008464068DC490840DA49486008460068CE
:100E4000DA490840D74908600846006820F4802045
:100E500008600846406820F4FE0048604FF41F0018
:100E600088607047CF49096821F48031CD4A11600C
:100E70001146096821F480211160B0F5803F03D04C
:100E8000B0F5802F0ED106E0C649096841F48031E3
:100E9000C44A116007E0C349096841F4A021C14A6E
:100EA000116000E000BF00BF704710B5014600228E
:100EB000002300204A11012A02D1BA4C236806E01F
:100EC000022A02D1B74C236A01E0B64C636A01F0F2
:100ED0001F02012494401C400CB1012000E00020BE
:100EE00010BD38B5002000900024002500BF31203F
:100EF000FFF7DBFF05460098401C00900098B0F516
:100F0000A06F01D0002DF2D03120FFF7CEFF08B145
:100F1000012400E00024204638BD01460020A14AFB
:100F2000106820F0F80040EAC10010607047A04946
:100F300008607047024600209A4B586820F47C10E5
:100F400042EA01031843974B586070479849086676
:100F5000704701460020934A506820F00300084380
:100F6000506070478F48406800F00C0070470146A1
:100F700000208C4A506820F0F00008435060704711
:100F800001460020874A506820F4E0600843506022
:100F9000704701460020834A506820F4605040EAC0
:100FA000C1005060704729B17E4A527A02437D4B9E
:100FB0005A7204E07B4A527A82437A4B5A727047E3
:100FC0007B49D8310860704701460020754A506857
:100FD00020F440400843506070470021714A20329D
:100FE0001170704A82F82010012802D004280AD11A
:100FF00004E001216B4A2032117005E00521694AA5
:101000002032117000E000BF00BF704769490860DE
:1010100070476449096A0143624A11627047654931
:1010200044390860704730B50021002200240023B5
:101030005C4D6D6805F00C0121B1042905D008292B
:1010400023D105E05C4D056022E05B4D05601FE0AB
:10105000544D6D6805F47012524D6D6805F480347E
:10106000022505EB92421CB9544D554305600BE037
:101070004C4D6D6805F400351DB1504D554305606C
:1010800002E04D4D5543056002E04B4D056000BF49
:1010900000BF444D6D6805F0F0010909484D6B5CD7
:1010A0000568DD4045603F4D6D6805F4E061090A63
:1010B000434D6B5C4568DD4085603A4D6D6805F4D5
:1010C0006051C90A3E4D6B5C4568DD40C560354DD9
:1010D0006D6805F44041890B3A4D6B5CC568B5FB02
:1010E000F3F5056130BD29B12E4A526902432D4BFB
:1010F0005A6104E02B4A526982432A4B5A61704775
:1011000029B1284A92690243264B9A6104E0254A94
:1011100092698243234B9A61704729B1214AD2696F
:101120000243204BDA6104E01E4AD26982431D4B20
:10113000DA61704729B11B4AD2680243194BDA6061
:1011400004E0184AD2688243164BDA60704729B12E
:10115000144A12690243134B1A6104E0114A1269DE
:101160008243104B1A61704712494039086070473A
:101170000F49C86470470B49C87170470948406AF5
:1011800040F0807007494862704701460020054AD8
:1011900092680A400AB1012000E00020704701492E
:1011A00088727047001002400000FFF8FFFFF6FE53
:1011B000000042428004424200127A0000093D00D1
:1011C000140000202400002010B50446FB4884428F
:1011D00009D101218803FFF7ADFF00214FF48040C2
:1011E000FFF7A8FF32E0F648844209D10121480404
:1011F000FFF7ADFF00214FF40030FFF7A8FF25E017
:10120000F048844209D101218804FFF7A0FF0021A2
:101210004FF48020FFF79BFF18E0EB48844209D190
:101220000121C804FFF793FF00214FF40020FFF7CE
:101230008EFF0BE0E548844208D101210805FFF745
:1012400086FF00214FF48010FFF781FF10BD2DE9CC
:10125000F04786B005460E460024A24600BFA146D0
:101260000027B08900B100BF2F462C8A4CF6FF70D2
:101270000440F08804432C82AC894EF6F3100440FD
:10128000B08831890843718908430443AC81AC8A32
:101290004FF6FF400440B0890443AC8201A8FFF739
:1012A000C2FEC648874202D1DDF810A001E0DDF899
:1012B0000CA0A88900F4004040B10AEBCA0000EB82
:1012C0000A1031684900B0FBF1F807E00AEBCA00E8
:1012D00000EB0A1031688900B0FBF1F86420B8FB1C
:1012E000F0F004012009642101FB1089A88900F4B1
:1012F000004040B1322000EBC900B0FBF1F000F03B
:101300000700044308E0322000EB09106421B0FB21
:10131000F1F000F00F0004432C8106B0BDE8F08727
:101320004FF41651016000218180C18001810C21A0
:10133000418100218181704710B502460020108A4A
:101340004FF2FF0318400B884C8823438C882343BB
:10135000CC8823431843108210BD002101804180B6
:101360008180C180704721B1828942F4005282811C
:1013700004E082894DF6FF731A4082817047F0B510
:101380000346002400260025002040F66A17B942D3
:1013900000D100BF1846C1F3421401F01F06012717
:1013A00007FA06F5012C01D10C3004E0022C01D122
:1013B000103000E014301AB107682F43076002E0D4
:1013C0000768AF430760F0BD1AB1838A0B4383827D
:1013D00002E0838A8B4383827047028A4FF6F07360
:1013E0001A400282028A0A430282704782894FF2BF
:1013F000FF731A40828182890A438281704721B13A
:10140000828942F00202828104E082894FF6FD73F4
:101410001A4082817047028A4FF6DF731A400282B7
:10142000028A0A430282704721B1028A42F4804252
:10143000028204E0028A4BF6FF731A400282704770
:10144000C1F308028280704701468888C0F3080013
:101450007047818941F0010181817047028BD2B2CE
:101460000283028B42EA012202837047028B02F45C
:101470007F420283028B0A430283704721B1828A32
:1014800042F02002828204E0828A4FF6DF731A4023
:101490008282704721B1828A42F01002828204E087
:1014A000828A4FF6EF731A408282704721B1828A96
:1014B00042F00802828204E0828A4FF6F7731A40F3
:1014C0008282704721B1828942F40042828103E026
:1014D0008289C2F30E028281704721B1828A42F46E
:1014E0000062828204E0828A4FF2FF731A40828295
:1014F0007047828A4FF6FB731A408282828A0A43BF
:101500008282704721B1828A42F00202828204E024
:10151000828A4FF6FD731A4082827047024600208D
:10152000B1F5007F00D100BF13880B400BB1012043
:1015300000E00020704701F40072B2F5007F00D196
:1015400000BFCA430280704770B5024600240023E2
:101550000025002040F66A16B14200D100BFC1F359
:10156000421501F01F03012606FA03F3012D02D1F3
:101570009689334006E0022D02D1168A334001E0FD
:10158000968A33400C12012606FA04F41688344079
:1015900013B10CB1012000E0002070BD10B5002295
:1015A000002340F66A14A14200D100BF0A120124B0
:1015B0009440A3B2DC43048010BD00000038014019
:1015C0000044004000480040004C004000500040F3
:1015D00001B502E00098401E009000980028F9D163
:1015E00008BD10B500F0B6FC00220221104600F044
:1015F000A8FD01220221102000F0A3FD02221146C5
:10160000202000F09EFD03220221302000F099FDF1
:1016100004220221402000F094FD052202215020E6
:1016200000F08FFD06220221602000F08AFD0722D3
:101630000421202000F085FD08220421302000F044
:1016400080FD09220421402000F07BFD4FF4625010
:1016500000F061FB00F07EFC10BD002109E00022DB
:1016600001E0531C9AB242F645039A42F9DB4B1C47
:1016700099B28142F3DB704788B000200790069052
:10168000002405908146049000BF019002900390D1
:1016900000F0D2FE00F002FB00F070FE00F0C4FD8E
:1016A000FFF79FFF00F056FC10234322022118464B
:1016B00000F08EFC10234F220221182000F088FC3D
:1016C00010233A220221202000F082FC0A22042169
:1016D000002000F036FD0B220421102000F031FD27
:1016E00010233A220421202000F072FC00F017FAA7
:1016F00000F0F4F93FE1A049088801F0FBF88346C7
:101700004FF08B4100F030FF824601F011F907469F
:1017100000229A4B01F00DF8054601F01CF998499A
:101720000860086801F004F98246964A964B01F079
:1017300000F80746954A964B00F0F5FF054601F084
:101740000AF90790079801F0F3F807463A460B4666
:101750000020904901F04EFB054600228E4B00F020
:10176000E8FF824601F0F7F80790079801F0C7F804
:101770001FFA80F94FF47A7099FBF0F0C0B28DF83F
:101780001000642099FBF0F00A2190FBF1F201FBBC
:101790001200C0B28DF811000A2099FBF0F090FB06
:1017A000F1F201FB1200C0B28DF812000A2099FB81
:1017B000F0F100FB1190C0B28DF8130010200090E2
:1017C0009DF8102001230221282000F059FC102050
:1017D00000909DF8112001230221302000F050FCE0
:1017E00010232E220221382000F0F2FB102000905E
:1017F0009DF8122001230221402000F041FC10201E
:1018000000909DF8132001230221482000F038FCAD
:10181000102370220221502000F0DAFB10237022E6
:101820000221582000F0D4FB10236D2202216020F9
:1018300000F0CEFB5049488801F05CF883464FF039
:101840008B4100F091FE824601F072F807460022BB
:101850004A4B00F06EFF054601F07DF848494860AC
:10186000486801F065F882464C4A4D4B00F061FF34
:1018700007464C4A4C4B00F056FF054601F06BF80A
:101880000690069801F054F805462A460B460020BB
:10189000404901F0AFFA824600223F4B00F049FF79
:1018A000074601F058F80690069801F028F884B22F
:1018B0004FF47A7094FBF0F0C0B28DF814006420FD
:1018C00094FBF0F00A2190FBF1F201FB1200C0B290
:1018D0008DF815000A2094FBF0F090FBF1F201FB6B
:1018E0001200C0B28DF816000A2094FBF0F100FB44
:1018F0001140C0B28DF81700102000909DF8142000
:1019000001230421282000F0BBFB102000909DF84B
:10191000152001230421302000F0B2FB10232E22D9
:101920000421382000F054FB102000909DF8162070
:1019300001230421402000F0A3FB102000909DF81B
:10194000172001230421482000F09AFB1023702265
:101950000421502000F03CFB102370220421582069
:1019600000F036FB10236D220421602000F030FBD4
:101970000E48FFF72DFEBEE63000002000001440A8
:1019800028000020448B6CE7FBA9F13FD9CEF75328
:10199000E3A5F73F0000244000005940AAF1D24DD2
:1019A0006210E43F85EB51B81E85F13FFEFF0F004A
:1019B000704700BFFEE700BFFEE700BFFEE700BFC5
:1019C000FEE77047704770477047000008B5012177
:1019D0001020FFF795FB0320ADF8000000208DF8E4
:1019E000030069464048FFF7CFF808BD00B591B045
:1019F00001210846FFF777FB01214802FFF780FB32
:101A00003A48FEF737FF3A4806903A4807900020D8
:101A100008900220099000200A9080200B9040003E
:101A20000C9080000D9020200E9000020F9000205E
:101A3000109006A92D48FEF7BFFF01212B48FEF7A5
:101A4000E6FF0020019001208DF808008DF80900C4
:101A50004FF4602003900020049002208DF81400C1
:101A600001A923484C38FEF704FD4FF44040FFF72E
:101A7000ABFA052301220A211D484C38FEF791FDDF
:101A8000052302220B211A484C38FEF78AFD01215A
:101A900017484C38FEF724FD012115484C38FEF755
:101AA00014FD13484C38FEF732FD00BF10484C3887
:101AB000FEF732FD0028F9D10D484C38FEF736FD0F
:101AC00000BF0B484C38FEF736FD0028F9D1012144
:101AD00007484C38FEF739FD11B000BD10B5FFF7CF
:101AE00075FFFFF783FF10BD0010014008000240A2
:101AF0004C2401403000002008B54FF4A060FEF7F0
:101B000023FC25208DF8000001208DF801008DF8C0
:101B100002008DF803006846FEF71BFC08BD00B507
:101B200085B001210420FFF7EBFA01218803FFF7BC
:101B3000E7FA4FF40070ADF8100018208DF813008C
:101B400003208DF8120004A95248FFF71DF84FF446
:101B50008060ADF8100004208DF8130004A94D48F2
:101B6000FFF712F84FF4E13000900020ADF80400C8
:101B7000ADF80600ADF80800ADF80C000C20ADF88B
:101B80000A0069464448FFF762FBFFF7B5FF0122F0
:101B900040F225514048FFF7F2FB01213E48FFF794
:101BA000E2FB05B000BD70B504460D46294620464F
:101BB000FFF746FC00BF80212046FFF7AFFC00285E
:101BC000F9D070BD2DE9F04107460D4616460024B8
:101BD00005E0295D3846FFF7E6FF601CC4B2B44259
:101BE000F7DB00BF40213846FFF798FC0028F9D00A
:101BF000BDE8F08170B506460C46002500BF615D6A
:101C00003046FFF7D0FF6D1C605D0028F7D100BFA4
:101C100040213046FFF782FC0028F9D070BD2DE945
:101C2000F04105460C46260AE7B231462846FFF742
:101C300007FC00BF80212846FFF770FC0028F9D080
:101C400039462846FFF7FCFB00BF80212846FFF7F6
:101C500065FC0028F9D0BDE8F08170B504460D465A
:101C6000E1B20D48FFF7ECFB00BF80210A48FFF707
:101C700055FC0028F9D0204670BD10B5044600BFC1
:101C800020210548FFF74AFC0028F9D00248FFF759
:101C9000DBFB10BD000801400038014010B56FF0BB
:101CA0000400FEF7A0FB2E4800682E49B0FBF1F0BF
:101CB0002D4908700846007800EB4001C1EBC010C8
:101CC0004FF6FF7101EAC0002849088010BD0146A7
:101CD000254A12784A434FF0E0235A6100229A6164
:101CE0001A46126942F001021A6100BF4FF0E02269
:101CF000106900F001021AB100F48032002AF5D018
:101D00004FF0E022126922F001024FF0E0231A6145
:101D100000229A6170470146144A12884A434FF0E4
:101D2000E0235A6100229A611A46126942F00102C8
:101D30001A6100BF4FF0E022106900F001021AB1F1
:101D400000F48032002AF5D04FF0E022126922F030
:101D500001024FF0E0231A6100229A6170470000EF
:101D60000000002000127A0034000020360000201D
:101D700010B54021F948FEF7B4FF8021F748FEF77F
:101D8000B0FF8021F548FEF7AEFF4021F348FEF793
:101D9000AAFF10BD10B54021F048FEF7A2FF802138
:101DA000EE48FEF7A0FF8021EC48FEF79AFF10BD39
:101DB00010B54021E948FEF794FF4021E748FEF7BF
:101DC00092FF10BD2DE9F04105462C464021E34825
:101DD000FEF789FF002619E0274607F08007802FCD
:101DE00004D18021DD48FEF77CFF03E08021DB4841
:101DF000FEF779FF6006040E4021D848FEF771FF18
:101E00004021D648FEF76FFF701CC6B2082EE3DBF8
:101E1000BDE8F08110B50446FFF7AAFF7820FFF770
:101E2000D1FFFFF7C5FF0020FFF7CCFFFFF7C0FF92
:101E30002046FFF7C7FFFFF7BBFFFFF7ABFF10BD63
:101E400010B50446FFF794FF7820FFF7BBFFFFF7BC
:101E5000AFFF4020FFF7B6FFFFF7AAFF2046FFF7CE
:101E6000B1FFFFF7A5FFFFF795FF10BD70B5044662
:101E70000D461DB1E0B2FFF7E3FF02E0E0B2FFF76D
:101E8000C9FF70BD70B50646002418E004F1B0002B
:101E90000021FFF7EBFF00210846FFF7E7FF0021D5
:101EA0001020FFF7E3FF002505E001213046FFF792
:101EB000DDFF681CC5B2802DF7DB601CC4B2082CA6
:101EC000E4DB70BD06E041F6650100E0491E002933
:101ED000FCD1401E0028F6D17047014605E00020E5
:101EE00001E0421CD0B27B28FBDB0A00A1F101011A
:101EF000F5D1704770B504460D4605F1B0000021DC
:101F0000FFF7B4FF102141EA14100021FFF7AEFFE4
:101F100004F00F000021FFF7A9FF70BD10B50021EC
:101F20008D20FFF7A3FF00211420FFF79FFF002162
:101F3000AF20FFF79BFF10BD10B500218D20FFF7EC
:101F400095FF00211020FFF791FF0021AE20FFF741
:101F50008DFF10BD70B5002418E004F1B000002121
:101F6000FFF784FF00210846FFF780FF00211020C3
:101F7000FFF77CFF002505E001210020FFF776FF39
:101F8000681CC5B2802DF7DB601CC4B2082CE4DBF2
:101F900070BD70B5002418E004F1B0000021FFF717
:101FA00065FF00210846FFF761FF00211020FFF7C1
:101FB0005DFF002505E001210846FFF757FF681C7B
:101FC000C5B2802DF7DB601CC4B2082CE4DB70BD09
:101FD0002DE9F04707460E46904699460025002415
:101FE000A8F12000C5B27F2F02DD0027B01CC6B2C9
:101FF000B9F1100F24D131463846FFF77BFF00249A
:1020000008E004EB0511564A505C0121FFF72EFF52
:10201000601CC4B2082CF4DB701CC1B23846FFF758
:1020200069FF002409E004EB051108314C4A505CBB
:102030000121FFF71BFF601CC4B2082CF3DB12E088
:1020400031463846FFF756FF00240AE005EB45010C
:10205000444A02EB4101085D0121FFF707FF601CC4
:10206000C4B2062CF2DBBDE8F08710B502460120B1
:1020700000E050430B00A1F10104E1B2F9D110BD21
:102080002DE9FF5F074691461E460E9D4FF0000A60
:10209000002435E0301B401EC1B20A20FFF7E5FFE7
:1020A000B9FBF0F00A21B0FBF1F201FB1208BAF122
:1020B000000F14D1701EA04211DDB8F1000F0CD139
:1020C000AB4605EBDB71491001FB0471C8B22B462E
:1020D00020220199FFF77CFF10E04FF0010AAB4688
:1020E00005EBDB71491001FB0471C8B208F1300146
:1020F000CAB22B460199FFF76BFF00BF601CC4B248
:10210000B442C7DBBDE8FF9F2DE9F04104460F460E
:102110001546984600260FE0AA5D434639462046FC
:10212000FFF756FF04F10800C4B2782C02DD00244A
:10213000B81CC7B2701CC6B2A85D0028ECD1BDE8BF
:10214000F0812DE9F04180460E46154600273146C4
:102150004046FFF7CFFE002411E0000000140140CC
:10216000203A0008F8370008804A02EB8511085D24
:102170000121FFF77BFE781CC7B2601CC4B2102C93
:10218000F2DB701CC1B24046FFF7B4FE00240CE045
:102190006900491C754A02EB4111085D0121FFF7F6
:1021A00065FE781CC7B2601CC4B2102CF0DBBDE821
:1021B000F0812DE9F05F06460F4690461C46DDF89B
:1021C00028A04FF0000BE11704EB5171C910A4EBEC
:1021D000C10131B92046E11704EB5171C1F3C705C4
:1021E00006E02046E11704EB5171C910491CCDB23D
:1021F0003D4615E029463046FFF77CFEB1460BE030
:1022000059460BF1010B1AF801000121FFF72EFED0
:1022100009F1010000F0FF09C145F1DB681CC5B2FE
:10222000A542E7DBBDE8F09F08B501214FF49470AB
:10223000FEF766FF4FF4FC70ADF8000010208DF83B
:10224000030003208DF8020069464948FEF79CFC14
:102250004FF4FC714648FEF744FD0320ADF8000042
:1022600069464448FEF790FC03214248FEF739FDD9
:102270004FF40040ADF8000069463F48FEF784FC8B
:102280004FF400413C48FEF72CFDC820FFF743FD0A
:102290000021AE20FFF7EAFD00210846FFF7E6FD2A
:1022A00000211020FFF7E2FD00214020FFF7DEFDB6
:1022B0000021B020FFF7DAFD00218120FFF7D6FDD5
:1022C0000021FF20FFF7D2FD0021A120FFF7CEFD66
:1022D0000021A620FFF7CAFD0021A820FFF7C6FDB8
:1022E00000213F20FFF7C2FD0021C820FFF7BEFDFF
:1022F0000021D320FFF7BAFD00210846FFF7B6FD05
:102300000021D520FFF7B2FD00218020FFF7AEFDB0
:102310000021D820FFF7AAFD00210520FFF7A6FD28
:102320000021D920FFF7A2FD0021F120FFF79EFD3B
:102330000021DA20FFF79AFD00211220FFF796FD19
:102340000021DB20FFF792FD00213020FFF78EFDFA
:1023500000218D20FFF78AFD00211420FFF786FD64
:102360000021AF20FFF782FD08BD000038000020EB
:1023700000140140001001400020014010B54FF44E
:10238000A060FDF7E1FF10BD70B50646382E15D0F0
:1023900006DC202E09D0282E0AD0302E17D10AE0D4
:1023A000402E0ED0482E12D10EE04FF4002413E040
:1023B0004FF4402410E04FF480140DE04FF4A014CB
:1023C0000AE04FF4C01407E04FF4E01404E0FEF715
:1023D00029FD4FF0FF3070BD00BFFEF723FD4FF425
:1023E0008030FEF73FFDFEF77CFD0546012D1ED136
:1023F0000020FEF7BCFD0020FEF7CBFDA802FEF793
:10240000BFFD21462804FEF795FD0120FEF79EFD45
:1024100000BF3920FEF749FD0028FAD00220FEF760
:1024200098FD00BFFEF79EFD0828FBD102E04FF0AB
:10243000FF30D0E70020CEE730B54821B1F1807FF2
:1024400001D301201DE021F07F40401E4FF0E0222B
:10245000506150170F22002807DA13071D0E3E4B5C
:1024600000F00F04241F1D5503E013071C0E3B4B07
:102470001C5400BF00204FF0E02290610720106143
:10248000002038B94FF0E020006920F003004FF041
:10249000E021086130BD00EBC0020123C3EBC202A2
:1024A0004FF0E0235A6100229A611A46126942F005
:1024B00001021A6100BF4FF0E022116901F480327D
:1024C000002AF8D04FF0E022126922F001024FF00A
:1024D000E0231A617047224A4FF0E0235A6100223C
:1024E0009A611A46126942F001021A6100BF4FF068
:1024F000E022116901F480320AB1421E90B2002834
:10250000F5D14FF0E022126922F001024FF0E023F2
:102510001A61704700EB800290B2124A4FF0E0233C
:102520005A6100229A611A46126942F001021A6148
:1025300000BF4FF0E022116901F480320AB1421E5F
:1025400090B20028F5D14FF0E022126922F001028A
:102550004FF0E0231A61704718ED00E000E400E05E
:102560003F190100FFB9DB0030B480EA010202F03C
:10257000004530F0004221F0004013D090B1C30D6F
:10258000D40DC2F31601C0F31600E41A41F40001A1
:1025900040F400027D34914201D3641C00E0490004
:1025A000002C02DA30BC002070474FF400000023FA
:1025B000914201D3891A034340084FEA4101F7D100
:1025C00051B1914202D14FF0004105E002D24FF0EB
:1025D000010101E06FF0010103EBC450284430BC5D
:1025E00000F0F6B92DE9FE4F804681EA0300C00FE6
:1025F0000C46009021F0004123F00045B8EB0200AA
:10260000A94105D24046214690461C460B4602464B
:1026100023F00040104347D0270DC7F30A00C3F34F
:102620000A510290401A019040286BDAC3F313005C
:1026300040F4801B0098924620B10023D2EB030A9D
:1026400063EB0B0B01985946C0F14002504600F075
:102650009EF906460D4650465946019A00F0A6F9E5
:1026600010EB08006141002487EA115284EAE77305
:102670001A4340D0009A62B3019A012A4FEA0752E6
:1026800015DC001B61EB02014FF0004202EA075229
:10269000CDE90042001C41F5801132462B4600F086
:1026A000DDF903B0BDE8F08F40462146F9E7001B95
:1026B00061EB0201001C41F5801300185B412018FA
:1026C000A2F5001747EB030140EAD570B6196D413A
:1026D00011E06D084FEA360645EAC0754FEA075229
:1026E000001B61EB0201001C41F5801149084FEA13
:1026F00030000019514132462B4603B0BDE8F04F7F
:1027000000F09DB90098012240000023D0EB0202A6
:1027100063EBE073009821464FEAE074B8EB0000E9
:1027200061EB0401E9E783F000435BE781F00041DE
:1027300058E72DE9FE4F81EA030404F0004421F03C
:10274000004100944FF0000B23F0004350EA0104D5
:102750005ED052EA03045BD0C3F30A54C1F30A55B6
:102760002C44A4F2F3340194A0FB0254C1F31301EE
:1027700041F48011C3F3130343F4801301FB0244BB
:1027800000FB034E840A970A44EA815447EA8357C0
:10279000A4FB076802958D0A05FB07854FEA932C79
:1027A00004FB0C542705029D4FEA065847EA1637EA
:1027B000B5EB08056EEB070C870E920E47EA811702
:1027C00042EA8312A7FB0201B6EB0B0164EB0004A3
:1027D0002B0D43EA0C335E1844EB1C50DA4651468D
:1027E000E7FB0201C5F313044FEA0B3343EA14532A
:1027F0004FEA0432019C43EA0603A4F10C0402945C
:10280000009CCDE900B400F029F903B0BDE8F08FD9
:1028100000200146F9E72DE9F04D81EA030404F0B8
:10282000004B21F0004514464FF0000A23F0004110
:1028300050EA050220D054EA01021DD0C5F30A5720
:102840000246C5F31303C1F31300C1F30A5640F463
:10285000801543F48013A7EB0608101BD64608F238
:10286000FD3873EB050002D308F1010801E092186E
:102870005B41B8F1000F03DA00200146BDE8F08D9E
:1028800000204FF48011064684460EE0171B73EBC0
:10289000050705D3121B63EB050306434CEA010C45
:1028A00049084FEA300092185B4150EA0107EDD128
:1028B00052EA030012D082EA040083EA05010843C9
:1028C00005D0101BAB4106D20122002306E00022F6
:1028D0004FF0004302E06FF0010253101AEB0600C4
:1028E0004CEB085110EB0A0041EB0B01BDE8F04D39
:1028F00000F0A5B896230022114600F072B800F04F
:10290000004220F00040C10DC0F3160040F400006A
:102910007F2901DA00207047962903DCC1F1960176
:10292000C84001E096398840002AF4D04042704700
:1029300000F0004230F000400AD0C10D01F5607196
:10294000C0F3160042EA0151C20840071143704724
:1029500000200146704701F0004330B421F00041EF
:1029600050EA010206D00A0DA2F56072C1F313010C
:10297000002A02DC30BC00207047440F44EAC10446
:10298000C100E01830BC00EBC25000F021B8202A92
:1029900004DB203A00FA02F1002070479140C2F1B6
:1029A000200320FA03F3194390407047202A06DBE6
:1029B000CB17203A41FA02F043EAE07306E041FA0D
:1029C00002F3D040C2F120029140084319467047FB
:1029D0000029A8BF7047401C490008BF20F0010033
:1029E000704710B4B0FA80FC00FA0CF050EA010411
:1029F00004BF10BC704749B1CCF1200421FA04F4A3
:102A000011FA0CF118BF012121430843A3EB0C017B
:102A1000CB1D4FEA00614FEA102042BF002010BCDE
:102A2000704700EBC35010440029A4BF10BC70478E
:102A3000401C490008BF20F0010010BC704710B5D1
:102A4000141E73F1000408DA401C41F100019218D1
:102A50005B411A4301D120F0010010BD2DE9F04D7A
:102A600092469B4611B1B1FA81F202E0B0FA80F2CF
:102A700020329046FFF78BFF04460F4640EA0A00DB
:102A800041EA0B0153465A46084313D0114653EA14
:102A9000010019D0C8F14002504600F0D1F80546B7
:102AA0000E46504659464246FFF771FF084305D08F
:102AB000012004E020463946BDE8F08D00200543A2
:102AC00046EAE0762C4337430A986305E40AA0EB14
:102AD00008000022FD0A44EA47540A3002D50020CB
:102AE0000146E9E7010510196941DDE908450019CA
:102AF0006941BDE8F04DA2E770B521F00043034302
:102B00000CD0C1F30A550024D5EB040564EB040393
:102B1000D617AD1AB34102DB0020014670BD201864
:102B200041EB025170BD2DE9F04D00231A461B1AEE
:102B30008A4103DB00200146BDE8F08DC1F30A5253
:102B4000C1F3130141F480154FF0000BD10702D1FE
:102B500000186D41521E0027044640F2FF1138460E
:102B600001EB620A3E468046024600204FF4801187
:102B700000F066F8C2197141BB1846EB0100B4EBD6
:102B8000030C75EB000C04D3E41A65EB0005174643
:102B90000E46241908F101006D4180463428E3DD1A
:102BA000F91946EB0600091BA84103D24FF0FF328A
:102BB000134601E0002213461BEB070046EB0A51C7
:102BC000BDE8F04DFFF73BBF0EB5C10F80EAE070E6
:102BD0000844CA07002140F233438DE80E000A463C
:102BE0000B46FFF73BFF03B000BD000030B5041EED
:102BF00071F1000404DB4FF00044404264EB01013A
:102C0000141E73F1000405DB1C464FF000435242D2
:102C100063EB0403994208BF904230BD064C074D58
:102C200006E0E06840F0010394E80700984710349C
:102C3000AC42F6D3FDF780FAA0400008C04000087F
:102C4000202A04DB203A21FA02F00021704721FA01
:102C500002F3D040C2F12002914008431946704768
:102C600070B58C1810F8015B15F0070301D110F84E
:102C7000013B2A1106D110F8012B03E010F8016B7B
:102C800001F8016B5B1EF9D12B0705D40023521EFE
:102C90000DD401F8013BFAE710F8013BCB1A921C66
:102CA00003E013F8015B01F8015B521EF9D5A14264
:102CB000D8D3002070BD490050EAC12018BF0420BD
:102CC0004A0D18BF40F0010040F2FF72B2EB515FB5
:102CD00008BF40F00200012808BF052070472DE919
:102CE000F0414F1E00EBC7010446D1E90001154633
:102CF0001E4637F006020DD02A463346FFF719FD6F
:102D00007F1E04EBC703D3E90023FFF76BFC37F00A
:102D10000602F1D1022F25D0042F13D0062F18BFA1
:102D2000BDE8F0812A463346FFF703FDD4E90A23C4
:102D3000FFF758FC2A463346FFF7FBFCD4E908238B
:102D4000FFF750FC2A463346FFF7F3FCD4E906238D
:102D5000FFF748FC2A463346FFF7EBFCD4E904238F
:102D6000FFF740FC2A463346FFF7E3FCD4E9022391
:102D7000FFF738FC2A463346FFF7DBFCD4E9002393
:102D8000BDE8F041FFF72EBC002213461046014972
:102D9000FFF741BD0000F03FFFF724BC00221346BF
:102DA00010461146FFF737BD40F2013200204FF0C8
:102DB000E041FFF7A1BE0000024A00201107FFF723
:102DC0009BBE000001FDFFFF02E008C8121F08C102
:102DD000002AFAD170477047002001E001C1121F9C
:102DE000002AFBD1704700000149086070470000CD
:102DF000380300202DE9F04D16460F4694B01C46CE
:102E000021F0004123F00042002814BF4FF0010CD4
:102E10004FF0000C0CEB470CFE4B0CEB03054FEA9C
:102E2000630C65452BD3350018BF012505EB440520
:102E30001D44F94B9D4222D3F84B52EA060C02D0B6
:102E40009F4205D148B914B000201946BDE8F08D65
:102E5000002808BF4FF0000C01D04FF0010C0CEB24
:102E6000470313F5001F0AD8002E14BF4FF0010CC2
:102E70004FF0000C0CEB440313F5001F07D914B0FE
:102E8000324623463946BDE8F04DFFF785BFDFF8EF
:102E900090834FF0000A002FB8BF424523DAE14B80
:102EA0009A42A8BF4FF0020A1DDADC4B93421ADCAB
:102EB000DD4B03EB2253142B08DDC3F1340C26FA4F
:102EC0000CF303FA0CFCB4450DD108E05EB9C3F174
:102ED000140C22FA0CF303FA0CFC944503D103F012
:102EE0000103C3F1020A51EA00031BD1002C19DAD5
:102EF000002F18BFBAF1020F02D0BAF1010F07D0AC
:102F00000220FFF771FF14B0BDE8F04DFFF73CBFA2
:102F10000220FFF769FFFFF737FF14B081F000418F
:102F2000BDE8F08D330070D1424525D107F18042D4
:102F300012F5801201BF00280020B84914B008BF64
:102F4000BDE8F08DB548884207DC002CA1BF1846CB
:102F5000214614B0BDE8F08D07E0002CBFBF184635
:102F600084F0004114B0BDE8F08DB0497944D1E956
:102F7000000114B0BDE8F08DDFF8A0C262452AD18F
:102F8000002C24DA39B1414517D1002804BF0020B4
:102F900002461CD106E040B10220FFF725FFFFF7F3
:102FA00003FF0A46394600F0D7BA9D4A394614B0A5
:102FB000002062F31E01BDE8F08D08DA14B03B4634
:102FC000BDE8F04D024600206146FFF724BC14B076
:102FD0003946BDE8F08D414517DAB4F1804F0CD089
:102FE000A4F10053B3F1FF530FD13B1E0DDB14B01E
:102FF0001946BDE8F04D00F0D9BB3B4614B002467F
:10300000BDE8F04D1946FFF794BB050027F00043DB
:103010003AD1E1B1414537D1002F06DD002CA1BFE7
:103020000020414614B0BDE8F08D002F01DD002CDA
:103030001FDB002F16DA002C14DBBAF1010F4FF062
:10304000000014BF76497A4914B0BDE8F08DBAF19A
:10305000020F18BF002F0CD0BAF1010F09D1002FB9
:1030600007DA0BE0002FB8BF002C0DDABAF1010F20
:1030700004D0002014B00146BDE8F08D14B000204B
:103080004FF00041BDE8F08D4FF0010808EBE77C00
:10309000CDF814C05CEA0A0C0DD0DFF898C1624587
:1030A0007EDDDFF894C1654B624512DD8B420ADBA1
:1030B000002C18DB23E00120FFF796FE14B0BDE8DA
:1030C000F04DFFF76BBE554A8A4202DC002C0ADC49
:1030D00015E0994202DA002C11DA04E04F4B9942D4
:1030E00019DD002C0BDD0220FFF77EFEFFF75CFEF2
:1030F0004B4A14B061F31E021146BDE8F08D022068
:10310000FFF772FEFFF758FE444A14B061F31E0247
:103110001146BDE8F08D00223946FFF704FB074653
:103120000D466FF00102FFF7E7FC4FF05532444BBC
:10313000FFF7FCFA3A462B46FFF7FBFA0022414B19
:10314000FFF7F4FA80468B463A462B46104619465E
:10315000FFF7EFFA42465B46FFF7EBFA88460E9020
:103160004FF0C042384B38462946FFF7E2FA834613
:103170000091364A344B41460E98FFF7DAFA804602
:103180000191334A334B38462946FFF7D2FA42467B
:10319000019BFFF7C8FA0D4602460B460C9000E073
:1031A00011E058460099FFF71DFA002788465A4655
:1031B0003846009BFFF7B7FA2B460C9AFFF7B6FA92
:1031C000024600F079B90020B1F5801F07DA3522F8
:1031D00028461946FFF790FC05466FF0340000EBD7
:1031E0002150A0F2FF300190C1F3130040F07F6145
:1031F00041F04051029118498842D8BF4FF0000B6E
:1032000035DD16498142C8BF4FF0010B2FDC4FF06E
:10321000000B25E0FFFF1F00FFFF0F000000F03F45
:103220000000F07F0000404301FCFFFF2811000078
:103230000000F0FF0000E0410000F043FFFFEF3F1F
:103240005555D53F0000E03F4715F73FFE822B65FF
:1032500044DF5DF80BAE543E8E9803007AB60B0047
:103260000198401C01900298A0F580100290FF4840
:103270000299784400EBCB000991D0E9002328465D
:103280000B931292FFF74FFA00910A9028460B9B7E
:10329000129A0999FFF7A6F902460B460020F44955
:1032A000FFF7B9FACDE90C010B46024600990A98DE
:1032B000FFF73FFA0690EF488846002778440299C6
:1032C000006810904FF0005040EA610000EB8B4026
:1032D00000F5002102910B9B129A1098FFF723FA38
:1032E0002A46099BFFF722FA3A464346FFF721FA9E
:1032F0000891129038464146029B109AFFF719FA3E
:10330000009B0A9AFFF712FA089B129AFFF70BFA32
:10331000DDE90C23FFF70DFA0B91069A1290434654
:1033200010461946FFF705FA05460246D2480B46F5
:103330000A9106217844FFF7D2FC0A9B2A4608919D
:10334000029010461946FFF7F4F9089B029AFFF71E
:10335000F0F905460991434638461946069AFFF7A3
:1033600041F90B9B129AFFF7E4F92A46099BFFF7F4
:1033700039F9CDE908013A46434610461946FFF7A8
:10338000D8F90A910022BD4B0090FFF72BF9DDE937
:103390000823FFF727F90D463A46B84B3846FFF7A2
:1033A000C2F90A9B009AFFF7BEF9DDE90823FFF78F
:1033B000BDF9CDE908013A462B4610464146FFF7D4
:1033C000B8F900910A90DDE908014346069AFFF733
:1033D000B0F9069088462B463A460B991298FFF7AB
:1033E000A8F94346069AFFF7FDF880460B460246C9
:1033F0000D9100990A98FFF7F5F800200F46054651
:10340000009B0A9AFFF78FF942460D9BFFF78EF952
:1034100088460E904FF06042994B28463946FFF798
:1034200088F902910090974A954B41460E98FFF714
:1034300080F980460391944A944B28463946FFF719
:1034400078F94246039BFFF7CDF8914A7A4402EBA4
:10345000CB03D3E90023FFF7C5F805460791019890
:10346000FFF7B2FB0C9003912A46079B0299009844
:10347000FFF7B8F8874A7A4402EBCB03D3E900237D
:1034800093460193FFF7AEF8039B0C9AFFF7AAF857
:10349000002788463846039B0C9AFFF744F95A46A2
:1034A000019BFFF740F9029B009AFFF73CF92A467F
:1034B000079BFFF73BF902460020069005986C4DEC
:1034C000AAF10103184301D1734D069000200B4669
:1034D000049030462146FFF72CF982468B4623465E
:1034E00030461946049AFFF71EF93A464346FFF75D
:1034F00020F952465B46FFF775F806468A463A467B
:10350000434621460498FFF714F904460F46324615
:103510005346FFF767F8614A8B46914221DBABEBDC
:10352000020353EA000210D122463B46FFF7FBF8A4
:10353000804603915A4A5B4B30465146FFF752F89A
:103540004246039BFFF752FB27D20220FFF74CFCB9
:10355000FFF72AFC0A46294614B062F31E01BDE8B3
:10356000F08D514B2BF000429A4216D34F4A0BEB91
:10357000020353EA000208D122463B46FFF7D3F884
:1035800032465346FFF732FB07D80220FFF72CFCE8
:10359000FFF712FC0A462946DEE72BF000404449BB
:1035A000444A01EB20514FF00008824223DA481CC4
:1035B0004FF4801121FA00F058443F4AC0F30A51F9
:1035C0007A443E4BA1F2FF31CB4020EA0303C0F323
:1035D000130040F4801CC1F1140012682CFA00F8AA
:1035E000BBF1000FB8BFC8F1000820463946FFF70D
:1035F0009AF804460F4622463B4630465146FEF7AF
:10360000F1FF4FF0000B5A462D4B58460391FFF740
:1036100090F800910A902B4A2B4B58460399FFF7DC
:1036200088F80491029022463B4658460399FFF7DA
:103630007AF832465346FFF779F8244A244BFFF7CD
:1036400078F8049B029AFEF7CDFF07468A46009B56
:103650000A9AFEF7C7FF04460E46009B0A9AFFF738
:1036600062F83A465346FFF761F833E09A0D0000DE
:103670000000F03FD80D0000080D000000000840D9
:1036800009C7EE3FFD033ADCF5015B14E02F3EBEB7
:10369000E00B0000A60B00000000F0BF000090400F
:1036A000FE822B654715973C00CC904000346F3F5D
:1036B00001FCFFFF0000E03FD40A0000FFFF0F0005
:1036C000432EE63F396CA80C615C20BEEF39FAFE50
:1036D000422EE63F0746224633460F9110461946D2
:1036E000FFF727F8834602462E488A460B460521F7
:1036F0007844FFF7F4FA5A465346FFF71AF8224681
:103700003346FFF713F882468B463A462046314649
:103710000F9BFFF70EF83A460F9BFEF763FF0F462D
:103720000A9000224FF0804350465946FEF7FBFFB7
:103730000391009052465B4620463146FEF7F9FF62
:10374000039B009AFFF767F83B460A9AFEF7EBFFE8
:1037500022463346FEF7E7FF0022134BFEF7E6FF53
:103760000E46044601EB08510815002810DC4246BD
:1037700020463146FFF7C0F9FFF79DFA042808BF3D
:10378000FFF71AFB424620463146FFF7B5F90446DB
:1037900006980B4614B022462946BDE8F04DFEF7C8
:1037A000C8BF00007C0900000000F03F2DE9F04197
:1037B00006460F46FFF7B7F904000D4618BF012073
:1037C000284320F00040C0F17F6000F1E040C00FCE
:1037D0000ED0301C18BF0120384320F00040C0F14B
:1037E0007F6000F1E040C00F04BF0120FFF7FCFA4A
:1037F00020462946BDE8F0810000000000000000DE
:10380000002F000000000700070000147F147F1441
:1038100000242A7F2A1200626408132300364955C7
:10382000225000000503000000001C22410000009F
:1038300041221C000014083E08140008083E080835
:10384000000000A060000008080808080000606090
:103850000000002010080402003E5149453E0000CF
:10386000427F4000004261514946002141454B31B1
:10387000001814127F10002745454539003C4A497D
:1038800049300001710905030036494949360006EF
:103890004949291E00003636000000005636000057
:1038A00000081422410000141414141400004122D2
:1038B000140800020151090600324959513E007CAA
:1038C0001211127C007F49494936003E4141412294
:1038D000007F4141221C007F49494941007F09097D
:1038E0000901003E4149497A007F0808087F00002D
:1038F000417F4100002040413F01007F08142241E8
:10390000007F40404040007F020C027F007F04089F
:10391000107F003E4141413E007F09090906003EFB
:103920004151215E007F0919294600464949493124
:103930000001017F0101003F4040403F001F204047
:10394000201F003F4038403F006314081463000705
:103950000870080700615149454300007F4141005C
:1039600000552A552A55000041417F0000040201FC
:1039700002040040404040400000010204000020DA
:1039800054545478007F4844443800384444442018
:1039900000384444487F00385454541800087E09C5
:1039A00001020018A4A4A47C007F0804047800008D
:1039B000447D4000004080847D00007F102844004A
:1039C0000000417F4000007C04180478007C08045B
:1039D000047800384444443800FC24242418001897
:1039E000242418FC007C0804040800485454542083
:1039F00000043F444020003C4040207C001C20400C
:103A0000201C003C4030403C004428102844001C4E
:103A1000A0A0A07C004464544C4414141414141446
:103A20000000000000000000000000000000000096
:103A3000000000F80000000000000033300000002B
:103A400000100C06100C0600000000000000000032
:103A500040C07840C0784000043F04043F040400A4
:103A6000007088FC08300000001820FF211E0000B4
:103A7000F008F000E018000000211C031E211E00C9
:103A800000F00888700000001E212324192721104F
:103A900010160E00000000000000000000000000F2
:103AA000000000E018040200000000071820400099
:103AB00000020418E0000000004020180700000089
:103AC000404080F0804040000202010F01020200ED
:103AD000000000F0000000000101011F01010100D1
:103AE000000000000000000080B070000000000036
:103AF00000000000000000000001010101010101BF
:103B00000000000000000000003030000000000055
:103B1000000000008060180400601806010000002A
:103B200000E010080810E000000F102020100F0027
:103B3000001010F8000000000020203F20200000AE
:103B40000070080808887000003028242221300006
:103B500000300888884830000018202020110E000E
:103B60000000C02010F8000000070424243F2400B7
:103B700000F80888880808000019212020110E008C
:103B800000E0108888180000000F112020110E009E
:103B900000380808C83808000000003F0000000096
:103BA0000070880808887000001C222121221C0057
:103BB00000E010080810E0000000312222110F0080
:103BC000000000C0C0000000000000303000000015
:103BD0000000008000000000000080600000000085
:103BE000000080402010080000010204081020009E
:103BF00040404040404040000404040404040400E9
:103C0000000810204080000000201008040201007D
:103C1000007048080808F00000000030360100007D
:103C2000C030C828E810E0000718272423140B0030
:103C30000000C038E0000000203C230202273820AA
:103C400008F8888888700000203F202020110E008E
:103C5000C030080808083800071820202010080085
:103C600008F808080810E000203F202020100F006E
:103C700008F88888E8081000203F2020232018003A
:103C800008F88888E8081000203F200003000000A2
:103C9000C03008080838000007182020221E020043
:103CA00008F808000008F808203F210101213F2002
:103CB000000808F8080800000020203F202000002D
:103CC00000000808F8080800C08080807F0000001D
:103CD00008F888C028180800203F20012638200056
:103CE00008F8080000000000203F202020203000BD
:103CF00008F8F800F8F80800203F003F003F2000D7
:103D000008F830C00008F808203F200007183F00DE
:103D1000E01008080810E0000F10202020100F000D
:103D200008F808080808F000203F21010101000000
:103D3000E01008080810E0000F18242438504F0045
:103D400008F8888888887000203F2000030C302005
:103D500000708808080838000038202121221C0043
:103D6000180808F8080818000000203F200000008C
:103D700008F808000008F808001F202020201F0075
:103D80000878880000C83808000007380E010000D5
:103D9000F80800F80008F800033C0700073C03009F
:103DA000081868808068180820302C03032C302005
:103DB0000838C800C83808000000203F2000000074
:103DC00010080808C83808002038262120201800CC
:103DD000000000FE020202000000007F40404000A0
:103DE000000C30C000000000000000010638C000D8
:103DF00000020202FE000000004040407F00000080
:103E000000000402020204000000000000000000A4
:103E100000000000000000008080808080808080A2
:103E2000000202040000000000000000000000008A
:103E300000008080808000000019242222223F2080
:103E400008F8008080000000003F112020110E00C3
:103E50000000008080800000000E11202020110052
:103E6000000000808088F800000E112020103F2004
:103E70000000808080800000001F22222222130088
:103E8000008080F0888888180020203F20200000D3
:103E90000000808080808000006B94949493600088
:103EA00008F8008080800000203F210000203F2093
:103EB00000809898000000000020203F2020000093
:103EC000000000809898000000C08080807F000083
:103ED00008F8000080808000203F24022D30200060
:103EE000000808F8000000000020203F202000000B
:103EF0008080808080808000203F20003F20003F25
:103F00008080008080800000203F210000203F2032
:103F10000000808080800000001F202020201F00E3
:103F2000808000808000000080FFA12020110E0012
:103F30000000008080808000000E112020A0FF8003
:103F4000808080008080800020203F2120000100B0
:103F50000000808080808000003324242424190005
:103F6000008080E0808000000000001F2020000012
:103F70008080000000808000001F202020103F2053
:103F8000808080000080808000010E3008060100E3
:103F900080800080008080800F300C030C300F0088
:103FA00000808000808080000020312E0E312000B3
:103FB000808080000080808080818E7018060100E3
:103FC00000808080808080000021302C2221300001
:103FD00000000000807C020200000000003F404022
:103FE00000000000FF00000000000000FF000000D3
:103FF0000002027C800000000040403F0000000002
:10400000000601010202040400000000000000009C
:10401000000000000000F03F000000000000F83F3A
:1040200000000000000000000000004003B8E23F74
:10403000000000000000000006D0CF43EBFD4C3E26
:10404000033333333333E33FFFAB6FDBB66DDB3F1B
:104050004D268F515555D53F01411DA96074D13F63
:1040600065DBC9934A86CD3FEF4E454A287ECA3F5D
:104070003E5555555555C53F93BDBE166CC166BFDF
:104080002CDE25AF6A56113FF16BD2C541BDBBBED8
:10409000D0A4BE726937663E000000000000000038
:1040A000C0400008000000203C030000602C000815
:1040B000304200083C03002004040000D82D000812
:1040C0001184A24A04680901020304060708090CC6
:1040D0006910051002040608180904040484E43C6D
:1040E0002724011AE40C0111140402011BFF090129
:1040F000041549897F1C2022AA012ABF0503122228
:10410000202B04045D0809102D3624A4A47F242448
:10411000604E20104C4754010A11D47FC105120F84
:104120003040F0180B8060F807101010D0FFD00658
:1041300001122201080C10FF1008040B08FF080BE5
:10414000040821293A080C10905020504C434C5040
:10415000204040C0120312FF080911414458414E4B
:1041600060584720151060028C16FE02F202FE1AFB
:10417000F82A091040100A047E018047300F1027EA
:10418000041347807F29C011151CE001060313E0CA
:104190001E29C011080B10804020130C13204080F2
:1041A000803F080E1084444424140CFF0C14244453
:1041B0004484201A08012808094989790D0B090B44
:1041C0000913801F47404444447F040A1044E029F7
:1041D000800A194020180B222AAAFFAAAAA280A2AC
:1041E000AA080B112A225F000E13080A6A8A8A9A0B
:1041F000AA8A8ACA0F20C01BFE2201490501151B8D
:104200000702012AFF050213071CF212FE0212F236
:10421000000811844F2414244F841008FF4A494891
:104220004949FF0F104049497F4949C041000000FA
:0400000508000131BD
:00000001FF
