:020000040800F2
:1000000028CB0020B90200082D290008392100085A
:1000100029290008071A0008F74E00080000000010
:10002000000000000000000000000000F145000892
:10003000A51D000800000000B529000801490008BE
:10004000D3020008D3020008D3020008D30200083C
:10005000D3020008D3020008D3020008D30200082C
:10006000D3020008D3020008D3020008D30200081C
:10007000D3020008D3020008D3020008D30200080C
:10008000D3020008D3020008D3020008D3020008FC
:10009000D3020008D3020008D3020008D3020008EC
:1000A000D3020008D3020008D3020008D3020008DC
:1000B000D3020008D302000865490008D3020008F3
:1000C000D3020008D3020008D3020008D3020008BC
:1000D000D3020008A94B0008D3020008314C0008E5
:1000E000D3020008D3020008D3020008D30200089C
:1000F000D3020008D3020008D3020008D30200088C
:10010000D30200088D2C0008D3020008D302000897
:10011000D3020008D3020008D30200089D4900085A
:10012000D3020008D3020008D3020008D30200085B
:1001300000F002F800F0B0F80AA090E8000C824449
:100140008344AAF10107DA4501D100F0A5F8AFF226
:10015000090EBAE80F0013F0010F18BFFB1A43F0A5
:10016000010318472C9200004C9200000A444FF003
:10017000000C10F8013B13F0070408BF10F8014B06
:100180001D1108BF10F8015B641E05D010F8016B4B
:10019000641E01F8016BF9D113F0080F1EBF10F8AF
:1001A000014BAD1C0C1B09D16D1E58BF01F801CBD2
:1001B000FAD505E014F8016B01F8016B6D1EF9D555
:1001C0009142D6D37047000000230024002500266A
:1001D000103A28BF78C1FBD8520728BF30C148BFAA
:1001E0000B6070476E2900F07C83702900F08581D8
:1001F000662907F0A983652907F0A683672907F018
:10020000A3836129AFF3008003681B0A28BF41F074
:100210008001692900F0F680642900F0F3807529D7
:1002200000F0F0806F2900F07584782900F051818A
:10023000E92900F00F84E42900F00C84F52900F08E
:100240000984EF2900F07284F82900F050810368D6
:10025000DB0928BF41F08001632900F07E83732908
:1002600000F08383E32900F0F986F32900F0FE868D
:10027000002070471FB500F053FF0400002000214C
:1002800007F04CFB401C60600020002107F030FBB1
:10029000E0601FBD10B510BD00F014FF1146FFF760
:1002A000E9FF06F051F800F0EDFF03B4FFF7F2FFAD
:1002B00003BC04F0BCFF0000094880470948004720
:1002C000FEE7FEE7FEE7FEE7FEE7FEE7FEE7FEE706
:1002D000FEE7FEE704480549054A064B7047000063
:1002E000054900083101000828C5002028CB00205E
:1002F00028C7002028C70020704700001CB50C4606
:10030000064B7B4469460090204600F004FB0446FF
:100310000020694600F012FB20461CBD3706000095
:100320000FB4044910B503AA029800F023FB10BCD7
:100330005DF814FB180000200FB41CB5084B06AA8A
:100340007B4469460090059800F0E5FA04460020D9
:10035000694600F0F3FA20461CBC5DF814FB00006F
:10036000F905000070B5044685690068C10601D52D
:10037000302600E02026C00707D070BDD4E9012157
:1003800030469047206A401C20626D1EF6D570BD35
:1003900070B5044685690078C00707D170BDD4E9FF
:1003A000012120209047206A401C20626D1EF6D556
:1003B00070BD70B50C460546012A05D02878800628
:1003C00000D5EA69002302E0012305E05B1C9342AB
:1003D00002D2E05C0028F9D1A869E618C01AA86129
:1003E000286A184428622846FFF7BCFF04E0D5E9D4
:1003F000012114F8010B9047B442F8D32846FFF7C7
:10040000C7FF70BD2DE9F04106460024106875292C
:10041000314616A510D000F0F9F9002802DA404262
:1004200013A507E031688A0701D512A502E0490744
:1004300004D511A5012401E000F0F1F900210A2200
:1004400006F1240709E0B0FBF2FCB0FBF2F302FB7B
:100450001C00303078541846491C0028F3D123463C
:100460002A463046BDE8F04100F0E2B90000000045
:100470002D0000002B00000020000000F0B40D460D
:100480000188090502D5214C7C4402E01F4C7C44C4
:100490000E34002100F1240608E002F00F071209D3
:1004A000E75D42EA03721B097754491C52EA0307CD
:1004B000F3D102780023120704D5702D06D009B1BC
:1004C000022311342246F0BC00F0B2B901231034EB
:1004D000F8E770B504460D462146106800F09FF914
:1004E000024629462046BDE870400023C6E7D21DDB
:1004F00022F00703D3E90023C0E70368126843F042
:10050000200303600823C3610023B7E7988C000031
:100510002DE9F05F894604464FF0000ADFF874B118
:10052000FB44C0F820A02046E1688847002874D02A
:10053000252806D0D4E901219047206A401C20627A
:10054000F1E700265F462046E168884720280546F7
:1005500007DB312D05D2781910F8200C08B10643BD
:10056000F1E7B00701D526F00406C4F81CA0002767
:10057000C4F818A02A2D09D0284604F051FE38B33B
:1005800004EB8708303DC8F8185019E059F8041BEF
:10059000204604EB87029161E1688847012F0546F8
:1005A00018D1E069002820DA26F020061DE0D8F8EE
:1005B000180000EB800005EB40003038C8F8180048
:1005C0002046E1688847054604F02AFE0028EED15F
:1005D000012F0AD02E2D08D12046E16888477F1CC4
:1005E0000546022F46F02006C4DBA069002803DA86
:1005F000404246F00106A061F00701D026F0100647
:100600006C2D0BD0682D09D04C2D39D06A2D35D0EA
:10061000742D35D07A2D33D016E038E0E1682F46BE
:1006200020468847B842054609D16C2F26D04FF4A2
:100630008060E168064320468847054604E06C2F49
:100640001AD04FF4807006430DB3A5F1410019286C
:1006500002D8203546F400664A46294620462660E0
:100660004E46FFF7BFFD80B101280BD0F61D26F0E6
:10067000070000F1080956E74020E4E78020D8E7AA
:100680000020D6E706F104094DE7284652E7206A24
:10069000BDE8F09F288C000030B505460B462A4681
:1006A00013F8014B12F8010B08B1A042F8D01CB1AD
:1006B000002802D06D1CF1E7284630BD10B5431C60
:1006C00002E010F8011B71B18107FAD14FF001323D
:1006D00002C88C1A8C4314EAC211F9D0C01A0A0657
:1006E00003D0C01E10BDC01A10BD0A0401D0801E68
:1006F00010BD0902FCD0401E10BD032A40F230801C
:1007000010F0030C00F0158011F8013BBCF1020F52
:10071000624498BF11F801CB00F8013B38BF11F8D3
:10072000013BA2F1040298BF00F801CB38BF00F8EA
:10073000013B11F0030300F00382083AC0F0088087
:1007400051F8043B083A51F804CBA0E80810F5E74B
:10075000121D5CBF51F8043B40F8043BAFF300802E
:10076000D20724BF11F8013B11F801CB48BF11F8A3
:10077000012B24BF00F8013B00F801CB48BF00F873
:10078000012B70474FF0013C50F8042B51F8043B0B
:100790009A4221D1A2EB0C03934313EACC1317D155
:1007A00050F8042B51F8043B9A4215D1A2EB0C03EC
:1007B000934313EACC130BD150F8042B51F8043BAC
:1007C0009A4209D1A2EB0C03934313EACC13DBD07A
:1007D0004FF00000704700BFD01A01BAB1FA81F1A2
:1007E00001F0180122FA01F0CB40C1F12001DBB287
:1007F000C0B2C01A2CFA01F3D11A914311EAC31105
:10080000E6D17047704770477047704709684A05DE
:1008100001D540B27047C905FCD500B270470968E0
:100820004A0501D5C0B27047C905FCD580B27047F2
:100830002DE9F0470D4699469246044600F12408FA
:100840000168880604D5E06921F01001216000E00C
:100850000120A84201DD471B00E00027A1697A19A9
:1008600002EB0900081AA0612078C00602D42046D5
:10087000FFF778FD002608E0D4E901211AF8060008
:100880009047206A401C761C20624E45F4DB20789D
:10089000C0060AD52046FFF765FD06E0D4E9012130
:1008A00030209047206A401C2062381EA7F10107C3
:1008B000F4DC07E0D4E9012118F805009047206A2C
:1008C000401C2062281EA5F10105F3DC2046FFF73D
:1008D0005FFD2078000602D50220BDE8F0870120E8
:1008E000FBE711680268006A530501D508700AE049
:1008F000D30501D5088006E0130603D5C217C1E968
:10090000000200E0086001207047000001694A1CF5
:1009100002610878704700B58FB0CDE90131002140
:10092000059105497944CDE9031011466846FFF762
:10093000EFFD0FB000BD0000E5FFFFFF0A6802F801
:10094000010B0A60704710B5436913B1AFF3008023
:1009500001E0FFF72EFD012010BD127800F1240107
:100960000A7000224A700122EDE711684FF0FF3251
:10097000E9E70000074B70B50D467B44FFF7CBFF5E
:100980000446284600F076FB10B14FF0FF3070BDF2
:10099000204670BD635900002DE9FF5F15468A4669
:1009A0000446DFF8AC80F8440027D8E900103E4642
:1009B000CDE9001010E03AF816106A4602A800F0DF
:1009C0005DFB411C07D02178890603D5E2693918FF
:1009D00091420DD80744761C2078800602D5E06944
:1009E000B84205DDAE42E6DB3AF816000028E2D157
:1009F000A069C01BA0612046FFF7B4FCD8E9001035
:100A0000CDE90010002017E03AF818106A4602A855
:100A100000F034FBB0F1FF3F81460BD000250DF113
:100A2000080B05E0D4E901211BF8050090476D1C77
:100A30004D45F7D308F10100B0428046E4DB206A5F
:100A4000384420622046FFF7A3FCBDE8FF9F00006A
:100A5000B68700002DE9F0418046D21D22F0070242
:100A60000025D2E90002F52915A614D0011E72F165
:100A7000000106DA0023D0EB030063EB020211A6AB
:100A800008E0D8F800108B0701D50FA602E049074F
:100A900001D50EA601251146002408F1240704E023
:100AA00000F080F830323A55641C50EA0102F7D168
:100AB0002B46324621464046BDE8F041FFF7B8BE1E
:100AC000000000002D0000002B00000020000000AE
:100AD00030B4002100F1240408E002F00705D20838
:100AE000303542EA4372DB086554491C52EA03057B
:100AF000F3D10468002310A2250708D504F02004D0
:100B00000C4304D0C46901230CA2641EC46130BC30
:100B1000FFF78EBE10B5044621461068FFF77FFE32
:100B200002462046BDE810400023D1E7D21D22F046
:100B30000701D1E90023CBE70000000030000000EE
:100B400010B5203AC0F00B80B1E81850203AA0E868
:100B50001850B1E81850A0E81850BFF4F5AF5FEA9C
:100B6000027C24BFB1E81850A0E8185044BF18C94F
:100B700018C0BDE810405FEA827C24BF51F8043BF6
:100B800040F8043B08BF7047D20728BF31F8023B4A
:100B900048BF11F8012B28BF20F8023B48BF00F8DE
:100BA000012B704730B5B0F10A024FEA900E71F197
:100BB00000034EEA817EB0EB0E0061EB91014FEA3B
:100BC000101E4EEA017E10EB0E0041EB11114FEAB0
:100BD000102E4EEA016E10EB0E0041EB11214FEA90
:100BE000104E4EEA014E10EB0E0041EB1141401841
:100BF00041F100014FEAD00040EA41704FEAD101D3
:100C000010EB80054FEA810444EA907444EB010440
:100C10006D1944EB0404521BA3414FF0000348BF7D
:100C20000A3200D530BD401C41F1000130BD704793
:100C30002DE9FF4F0C461E464FF0FF378BB0D2E92F
:100C40000001DDF860800A908A46C1F30A5505B9B3
:100C50003D46002108464FF00000BAF1000F00F4B5
:100C6000400005DA00EB80004FF4400101EA50003B
:100C70004FEA9059B9F1010F00DDB9460A9850EAE0
:100C80004A000ED044F61050A5F2FF3545432F140C
:100C9000B8F1000F1ED07542291E1EDDC9F10002F9
:100CA0001CE0B8F1010F4FF0000001D0302103E04B
:100CB000F24305E02154401CB042FBDB30460022E9
:100CC000002121540B99C1F80880C1E900200FB020
:100CD000BDE8F08FBD1B6D1CDEE74A4600DA6942B5
:100CE00006A800F061FA06AB93E8070003AB83E8BF
:100CF000070050460A9900F0CBFA8DE80700A0F5EE
:100D000000501F3800900398002D09DD42F21F01AA
:100D10004A46084403A90390684600F02AFD08E00B
:100D2000A0F500504A461F3803A90390684600F01A
:100D300034FD8DE807000004000C03D04FF0FF30B5
:100D4000410800E01046B8F1000F03D000220092E5
:100D500015461EE0751E05D4FFF724FF303262559C
:100D60006D1EF9D5B3460122084302D000227F1C34
:100D700004E02078302801D100227F1E002A099744
:100D800086D01DE0112D07DAFFF70CFF30326255D7
:100D90006D1C50EA0102F5D1084302D00098C8B199
:100DA0000EE00021681E05E0235C625C635422545F
:100DB000401E491C8142F7DBAB46A81B401E099030
:100DC000002004F80B000B98099AC0F80880C0E9CD
:100DD000002B7CE711264FF0000859E72DE9F04F72
:100DE00088460446D21D22F0070191B0D1E90001E6
:100DF000CDE90A0104F000FA02460B98C00F01D0B9
:100E00002D2007E02068810701D52B2002E020215A
:100E100001EAC000032A099001D0072A05DB034636
:100E20004146204600F080F90BE12078800601D58C
:100E3000E06900E00620B8F1650F814606D0B8F100
:100E4000660F18D0B8F1670F70D131E00020B9F10A
:100E5000110F009001DB112301E009F101030AAA3F
:100E600001A90CA8FFF7E4FEDDE90C70002609F1EA
:100E70000105834647E001204B4600904FF00047B4
:100E80000AAA01A90CA8FFF7D3FEDDE90DB00C9961
:100E90005D46002610B909F101000D18B9EB0500F7
:100EA00003D4C0F1FF3609F10105A5EB09002BE0E1
:100EB000B9F1010F01DA4FF001090020B9F1110F6A
:100EC0000090484601DD112300E003460AAA01A96B
:100ED0000CA8FFF7ADFEDDE90C704D4600268346F9
:100EE000207800070AD4AB4500DA5D4601A8012D41
:100EF00004DD411911F8011C302907D04F4502DAF1
:100F000017F1040F04DA012082460FE06D1EEEE7B0
:100F1000002F02DCED1B3E4403E0781CA84200DDFC
:100F20007D1CB81B00F1010A4FF000472078000734
:100F300003D4AA4501DB4FF0FF3A0021B7F1004F7F
:100F40000DF143088DF8431024D002202B23002FED
:100F500001DA7F422D230A21021EA0F1010000DCEC
:100F60005FB197FBF1FC97FBF1F201FB1C7C17468C
:100F70000CF1300C08F801CDEEE7A8F10100037088
:100F80002188090501D5452100E06521A0F101086E
:100F900000F8011C09980FA9A1EB0807FF1D00B17B
:100FA0000120411901EBEA70A1693844081A401E7A
:100FB000A0612078C00602D42046FFF7D3F9099833
:100FC00028B1D4E901219047206A401C2062207892
:100FD000C00622D52046FFF7C5F91EE0002E04DB2F
:100FE000B34502DD01A8805D00E03020D4E9012195
:100FF0009047206A401C2062761CAAF101005FEA3B
:10100000000A0AD100F08CF8C0680168405CD4E99D
:1010100001219047206A401C2062281EA5F101058D
:10102000DCDC07E0D4E9012118F8010B9047206AC5
:10103000401C2062381EA7F10107F3DC2046FFF7B1
:10104000A7F9032011B043E610B5436913B1AFF31C
:10105000008001E0FFF7A0FC012010BD128800F124
:10106000240182840022C2840122EDE711684FF03E
:10107000FF32E9E7007B00F08000704770B516464C
:101080000C46054600F044F8036893F80101012876
:1010900006D0FF2C0FD8185D68B101202C7070BDF0
:1010A000D3F807013246214603F2071303442846CA
:1010B000BDE8704018474FF0FF3070BD00487047E2
:1010C000C4C400207546FFF7F9FFAE460500694627
:1010D000534620F00700854618B020B5FFF7FAF810
:1010E000BDE820404FF000064FF000074FF0000829
:1010F0004FF0000B21F00701AC46ACE8C009ACE8AA
:10110000C009ACE8C009ACE8C0098D4670470000D2
:1011100010B500F005F8001D10BD00BF016800000B
:1011200000487047E4C400202DE9F0411F46044602
:1011300003260168072A01F4006004DB08B116A544
:1011400005E016A503E008B115A500E015A521F0FE
:1011500010002060A069C01EA0610FB1401EA061F8
:101160002046FFF7FFF84FB1D4E9012138469047F8
:10117000206A401C2062C01C206206E0206AFAE758
:10118000D4E9012115F8010B9047761EF8D22046CC
:10119000FFF7FEF8BDE8F0814E414E006E616E0033
:1011A000494E4600696E66002DE9F04781461646B5
:1011B0008AB0334878440DC88DE80D003048784433
:1011C000801C03AC0DC884E80D0041F69B30084438
:1011D000372190FBF1F290FBF1F5A5F1800501FBC1
:1011E00012041B3C02D56442012000E00020DFF81D
:1011F00090A080460027FA44AAF1BE0A0DE0E0075D
:1012000009D03246684607EB47010AEB810100F03E
:10121000C4FA8DE8070064107F1C002CEFD1184F32
:101220007F44AC3F18E0E80714D007EB04100DF141
:10123000180A90E80E008AE80E00C068F04201D15A
:1012400098190890324606A903A800F0A6FA03AB45
:1012500083E807006D10641C002DE4D13246694616
:10126000B8F1000F03A802D000F083FA01E000F00B
:1012700094FAC9E90001C9F808200AB0BDE8F0876E
:101280002C8000000446AFF300802046FFF70DF8E5
:101290005FEA400C08BF91F0000F4FEA8C234FEA41
:1012A000C12243EA51514FEA1C5018BF00F5F040EB
:1012B0004FEA300018BF41F000415FEA6C5C00F07B
:1012C0002980BCF1FF3F08BF40F080407047130CFD
:1012D00006BF12044FF0100C4FF0000C130E04BFA9
:1012E00012020CF1080C130F04BF12010CF1040CD4
:1012F000930F04BF92000CF1020CD30F04BF5200F5
:101300000CF1010C11464FF00002A0F11F00A0EB00
:101310000C00704711F0004F08BF704731F00041DA
:101320003FF4D5AF0B0C06BF09044FF0100C4FF083
:10133000000C0B0E04BF09020CF1080C0B0F04BFCC
:1013400009010CF1040C8B0F04BF89000CF1020C95
:10135000CB0F04BF49000CF1010CCCF12003A0EB32
:101360000C0022FA03F302FA0CF241EA030100F145
:101370000100704720F07F4C80EA030023F07F4794
:10138000ACEB070303F57C5300F0004003F1FF03CF
:101390002DE980494FEA154B09B44FEA144325EA79
:1013A0000B4E24EA03480FF2042606EB13274908E4
:1013B0003E785FEA320203FB0667C7F5000707FBCA
:1013C00006F64FEA54374FEAD64606F1020607FB07
:1013D000066CCCF1005C4FEA1C472CEA074C07FB7B
:1013E00006F40CFB06F504EB15464FEA961634BFDF
:1013F00000204FF000404FEAD13706FB07FC4FEAD0
:101400001C4C0CFB0BF7D21B03FB0CF761EB070129
:101410000CFB0EF7B0EB074072EB17420CFB08F722
:1014200034BFA2EB0742B2EB074261EB17414FEA30
:101430000C444FEA910706FB07FC4FEA1C4C0CFBDF
:101440000BF7B0EBC74072EB573203FB0CF734BF1E
:10145000A2EBC742B2EBC74261EB57310CFB0EF770
:10146000B0EBC70072EB57720CFB08F734BFA2EB6E
:10147000C702B2EBC70261EB5771039F4FEA81616C
:1014800041EA921104EBCC044FEAD1374FEA826271
:1014900006FB07FC42EA90124FEA80604FEA1C4CC0
:1014A0000CFB0BF7D21B03FB0CF761EB07010CFBEA
:1014B0000EF7B0EB074072EB17420CFB08F734BF96
:1014C000A2EB0742B2EB074261EB17414FEA8C55A2
:1014D0004FEA910704EB9C2406FB07FC4FEA1C4CE7
:1014E0000CFB0BF7B0EBC74072EB573203FB0CF76A
:1014F00034BFA2EBC742B2EBC74261EB57310CFBE2
:101500000EF7B0EBC70072EB57720CFB08F734BF55
:10151000A2EBC702B2EBC70261EB577115EB4C258A
:101520004FEA816141EA92114FEA82624FEAD13774
:1015300042EA901206FB07FC44F100044FEA806087
:101540004FEA1C4C0CFB0BF7D21B03FB0CF761EBB7
:1015500007010CFB0EF7B0EB074072EB17420CFBD8
:1015600008F734BFA2EB0742B2EB074261EB174129
:1015700015EB1C154FEA813141EA92414FEA823264
:1015800042EA90424FEA80304FEA0C7644F1000480
:1015900048EA03434EEA0B484FF0000EB2EB080C4A
:1015A00071EB030724BF624639464EEB0E0E4FF037
:1015B000000B0018524149414BEB0B0BB2EB080CEE
:1015C00071EB03077BF1000B24BF624639464EEBFB
:1015D0000E0E4FF0000B0018524149414BEB0B0B24
:1015E000B2EB080C71EB03077BF1000B24BF6246E2
:1015F00039464EEB0E0E51EA020718BF46F00106BF
:1016000016EB0E7655F1000254F1000103D5BDE84A
:101610008901BDE80088BDE88901BDE80048B61928
:10162000524141EB0101A3F10103704780807F7EAD
:101630007D7C7B7A79787776767574737271717048
:101640006F6E6E6D6C6C6B6A6A69686867666665FA
:101650006464636362616160605F5F5E5E5D5D5C88
:101660005C5B5B5A5A5959585857575656555555F9
:101670005454535352525251515050504F4F4F4E59
:101680004E4D4D4D4C4C4C4B4B4B4A4A4A494949A7
:1016900048484847474747464646454545444444E9
:1016A000444343434342424242414141002B26D4FA
:1016B000770021D01CB54FEA370703B44FF0100074
:1016C0004FF010014FF000000FBCBDE810400BF1CF
:1016D000010BBBF1010F08BF5FEA170722BF12F130
:1016E000010211F101014FF0004143F1000300F04C
:1016F000004043EA00007047F9D35708DAE746EAAA
:10170000064613F1400F4FEA16461FDD13F1200F76
:10171000DFBF16430A46002120335B42C8D0C3F125
:10172000200746EA064602FA07F74FEA164646EA57
:101730000706C3F1200722FA03F201FA07F721FA9C
:1017400003F14FF0000342EA0702B1E746EA02065E
:1017500046EA06464FEA164646EA0106BCBF46EA96
:101760000646360C4FF000034FF000024FF0000128
:101770009EE72DE9C048934630B491E8380007C889
:1017800031EA400C48BF34EA430C03D5FFF7F2FDC1
:10179000FFF78CFFF0BCBDE800882DE9C0489346F8
:1017A00030B491E8380007C810F0804F08BF13F03C
:1017B000804F03D100F005F8FFF778FFF0BCBDE8DB
:1017C000008820F07F4780EA030023F07F4C07EB7E
:1017D0000C03A3F57C5300F00040A3F1FE0392F04C
:1017E000000F00F0B38095F0000F00F077802DE936
:1017F00001494FEA11404FEA144621EA004800FB34
:1018000006FC24EA064708FB06F607FB08F800FB7F
:1018100007F718EB06484CEB164C4FEA124B18EB47
:1018200007484FEA15464CEB174022EA0B4E0BFBDC
:1018300006FC25EA06470EFB06F607FB0EFE0BFB31
:1018400007F71EEB064E4CEB164C4FF000061EEB56
:10185000074E4CEB174B18EB0B0840F1000018EB50
:101860000E0B58EB000840F100008F1A4FF00001FA
:101870003CBFC943661B14BFB5EB040C00213CBF41
:10188000C943F61B4FEA17444EEA8E0E27EA044579
:101890004FEA1C4704FB07622CEA074C05FB07F7DD
:1018A0000CFB05F604FB0CFC16EB074642EB17425B
:1018B00016EB0C4642EB1C421BEB060658EB0202F1
:1018C000414146EA9E0601D5BDE80189B61952415B
:1018D00041EB0101A3F10103BDE801894FEA144581
:1018E0004FEA114724EA054621EA074C05FB07F4B5
:1018F00006FB07F70CFB06F105FB0CFC11EB07419F
:1019000044EB17444FEA124711EB0C4144EB1C44E3
:1019100022EA074C05FB07F206FB07F70CFB06F66D
:1019200005FB0CFC16EB074642EB174216EB0C4688
:1019300042EB1C456A1854F1000148BF7047B619C4
:10194000524141EB0101A3F10103704795F0000FF3
:1019500037D04FEA11424FEA144721EA024624EAFF
:10196000074C02FB07F106FB07F70CFB06F402FB32
:101970000CFC14EB074441EB17414FEA154714EBFD
:101980000C4441EB1C4125EA074C02FB07F506FB22
:1019900007F70CFB06F602FB0CFC16EB074645EBC3
:1019A000174516EB0C4645EB1C42121951F100018C
:1019B00048BF7047B619524141EB0101A3F1010341
:1019C00070474FEA14454FEA114724EA054621EAD9
:1019D000074C05FB07F106FB07F70CFB06F24FF07F
:1019E000000605FB0CFC12EB074241EB174112EB22
:1019F0000C4251EB1C4148BF7047921841EB01016A
:101A0000A3F10103704700BFFEE770B500254FF456
:101A1000803404E0802001F025F900B103E02000CB
:101A2000A4F10104F6D100BF0CB9032070BD40F24F
:101A3000FF5001F0D1F82846F8E7000070B50446E1
:101A400005E01548456B05F0450000B100E0F8E7FA
:101A500000BF042001F006F920B1042001F0BCF819
:101A6000032070BD012001F0FDF820B1012001F03C
:101A7000B3F80120F5E708480069A04201D0102022
:101A8000EFE740F2FF5004498863084640690821A7
:101A90000840C0B2E5E700000080014070B50026B4
:101AA0004FF4803505E01148446B04F0450000B167
:101AB00003E02800A5F10105F5D100BF15B104F040
:101AC000040028B10326042001F086F8304670BDDA
:101AD000012001F0C7F818B10126012001F07CF8BF
:101AE00040F2FF5001F078F83046F0E70080014006
:101AF00010B505E00B48446B04F0450000B100E070
:101B0000F8E700BF042001F0ADF820B1042001F097
:101B100063F8032010BD40F2FF5001F05DF8002093
:101B2000F8E70000008001402DE9F04105460E462F
:101B30004FF0000805E01F48476B07F0450000B173
:101B400000E0F8E700BF042001F08CF828B1042081
:101B500001F042F80320BDE8F081012001F082F895
:101B600020B1012001F038F80120F4E711480069A4
:101B7000A84201D01020EEE740F2FF5001F02CF80F
:101B80000C48446904F4604018B9200C3080404689
:101B9000E1E704F4005008B11320DCE704F48040CE
:101BA00008B11020D7E704F4004008B10F20D2E7B5
:101BB0004046D0E70080014070B500264FF48035E4
:101BC00005E00F48446B04F0450000B103E0280035
:101BD000A5F10105F5D100BF15B104F0040028B14D
:101BE0000326042000F0F8FF304670BD04F04000EA
:101BF00018B10026402000F0EFFF3046F5E7000066
:101C00000080014021B1026842F00102026004E05C
:101C100002684FF6FE731A400260704701684FF683
:101C2000FE72114001600021016041608160C1606D
:101C30004B49884208D14A490839496841F00F01A7
:101C4000474A083A51608AE045491431884208D130
:101C500043490839496841F0F001414A083A516066
:101C60007DE03F492831884208D13D49083949681B
:101C700041F470613A4A083A516070E038493C31A9
:101C8000884208D136490839496841F47041344ADC
:101C9000083A516063E032495031884208D13049F6
:101CA0000839496841F470212D4A083A516056E0DC
:101CB0002B496431884208D129490839496841F4DF
:101CC0007001274A083A516049E025497831884235
:101CD00008D123490839496841F07061204A083A1F
:101CE00051603CE01F49884206D1011F096841F05C
:101CF0000F01021F116032E01A491431884208D1E5
:101D00001849091F096841F0F001164A121F1160B5
:101D100025E014492831884208D11249091F096871
:101D200041F470610F4A121F116018E00D493C31F7
:101D3000884208D10B49091F096841F47041094ADA
:101D4000121F11600BE007495031884207D1054945
:101D5000091F096841F47021024A121F116070477F
:101D6000080002400804024010B50022026847F64D
:101D7000F0739A430C6A8B6823430C6923434C69C4
:101D800023438C692343CC6923434C6A23438C6AE5
:101D900023431A430260CB6843600B6883604B683F
:101DA000C36010BD704700002DE9FC4107460D4699
:101DB0000026002400200090019008205B49086064
:101DC00010204860402088600020C8604FF4806088
:101DD0000861084600F07CFF1020FFF72FFE044644
:101DE00014B12046BDE8FC815148008800044F49E9
:101DF000086037204860402088600020C8604FF4A9
:101E000080600861084600F063FF3720FFF716FE88
:101E100004460CB12046E5E74FF0FF304549086025
:101E200008204860302088600220C86000200861D7
:101E300001204861084600F0EBFE00203B490860A5
:101E400033204860402088600020C8604FF48060E4
:101E50000861084600F03CFF3320FFF7EFFD044621
:101E60000CB12046BEE70CE04FF4001000F0FAFE83
:101E700038B100F027FF4DF82600761C022E00D363
:101E800006E02D48406B40F22A6108400028EBD064
:101E900000BF082000F0E6FE20B1082000F09CFE04
:101EA00004209FE7022000F0DDFE20B1022000F0B8
:101EB00093FE022096E7202000F0D4FE20B12020DF
:101EC00000F08AFE06208DE74FF4007000F0CAFE95
:101ED00028B14FF4007000F07FFE072082E740F247
:101EE000FF5000F079FE00980006009901F47F4150
:101EF00040EA0120009901F47F0140EA1120009995
:101F000040EA1160686001980006019901F47F4180
:101F100040EA0120019901F47F0140EA1120019972
:101F200040EA1160286020465CE700004003002082
:101F30002800002054030020008001402DE9F041DA
:101F4000024600250026002000230024002791F8E7
:101F500003C00CF00F0591F803C00CF0100CBCF19D
:101F6000000F03D091F802C04CEA050591F800C0BB
:101F7000BCF1000F31D0146800202BE04FF0010CB1
:101F80000CFA00F3B1F800C00CEA03069E4220D11F
:101F900083004FF00F0C0CFA03F7BC4305FA03FC67
:101FA0004CEA040491F803C0BCF1280F06D14FF0AD
:101FB000010C0CFA00FCC2F814C00AE091F803C04E
:101FC000BCF1480F05D14FF0010C0CFA00FCC2F82F
:101FD00010C0401C0828D1D31460B1F800C0BCF177
:101FE000FF0F34DD546800202EE000F1080C4FF0A4
:101FF000010808FA0CF3B1F800C00CEA03069E428F
:1020000021D183004FF00F0C0CFA03F7BC4305FA03
:1020100003FC4CEA040491F803C0BCF1280F05D17D
:1020200000F1080C08FA0CF8C2F8148091F803C00B
:10203000BCF1480F07D100F1080C4FF0010808FA75
:102040000CF8C2F81080401C0828CED35460BDE8BC
:10205000F0810161704700002DE9F05F82460F4674
:1020600014462046E21704EB5272D2102146E317C1
:1020700004EB5373DB10A4EBC3030BB1012300E0AB
:1020800000231A44624302F0FF099AF800600AF143
:10209000010082460578812E05DB402D03DBFF2DF4
:1020A00001D0FF2E0DD14FF0000B06E0002007F805
:1020B000010B0BF1010000F0FF0BCB45F6DBBDE897
:1020C000F09F7F2D03DAA5F14000C5B202E0A5F133
:1020D0004100C5B2A6F18100C6B2BE2000FB065089
:1020E00000FB09F80C2C04D0102C0CD0182C1ED19D
:1020F00013E01048D0F8090000EB08014A463846C2
:1021000002F054FF13E00B48D0F8110000EB080177
:102110004A46384602F04AFF09E00648D0F819005E
:1021200000EB08014A46384602F040FF00BF00BFFE
:1021300000BFC4E7A0C4002000BFFEE772B670472E
:1021400062B670471CB504460020019000902148FB
:1021500000880004204908600D2048604020886005
:102160000020C8604FF480600861084600F0B0FDB0
:102170001A48406B009002E01848406B00900098AD
:1021800000F045000028F7D0012000F06BFD20B1E1
:10219000012000F021FD01201CBD042000F062FDA3
:1021A00020B1042000F018FD0320F5E70B4800697A
:1021B0000D2801D01020EFE740F2FF5000F00CFD99
:1021C0000648406901900198C0F343202070002028
:1021D000E2E70000280000204003002000800140CA
:1021E00008B50121442000F017FC1C20ADF80000C8
:1021F00048208DF8030069460648FFF79FFE01203E
:10220000ADF8000028208DF8030069460248FFF76A
:1022100095FE08BD001801400008014070B5044655
:10222000002617480588408845431548808846F6AB
:102230000401884216D112488079012812D1002069
:102240000F4988712A2048812B2088810021084667
:1022500000F0BEF901200A4988712B2048812A200C
:10226000888103E00021084600F0B2F900F024FB69
:10227000002602E003480480761CAE42FAD370BD0B
:10228000140300200008006C2DE9FF4F84B0814644
:102290008A460020039002900698A0EB0905079853
:1022A000A0EB0A06CDF80490CDF800A0002D01DDCA
:1022B000012705E00DB9002702E04FF0FF376D421E
:1022C000002E02DD4FF0010806E016B94FF00008BD
:1022D00002E04FF0FF387642B54201DD2C4600E0C7
:1022E00034464FF0000B21E0009A91B2019A90B26F
:1022F00000F022F80398284403900298304402909A
:102300000398A04205DD0398001B03900198384410
:1023100001900298A04205DD0298001B02900098EF
:10232000404400900BF101001FFA80FB601C8345C4
:10233000DADD08B0BDE8F08F30B504460D46294619
:10234000204600F045F900F0B7FA0248008802493B
:10235000088030BD1E0000200008006CF0B5044667
:102360000D4616461F462B46324629462046FFF7A5
:102370008BFF3B46224629462046FFF785FF3B461A
:10238000324639462046FFF77FFF3B463246294614
:102390003046FFF779FFF0BD30B503460C461546D1
:1023A0005A48808849F24131884205D05748808890
:1023B00045F21031884214D15449488900F076FA28
:1023C000181200F06DFAD8B200F06AFA4F49888905
:1023D00000F06CFA201200F063FAE0B200F060FA4C
:1023E0008CE04A48808845F21051884220D1474904
:1023F000488900F05BFA181200F052FA4349498903
:10240000491C88B200F052FAD8B200F049FA3F49AC
:10241000888900F04BFA201200F042FA3B49898982
:10242000491C88B200F042FAE0B200F039FA65E0E7
:102430003648808841F66311884228D13348807934
:1024400020B932480088401EC01A83B22F494889FB
:1024500000F02CFA181200F023FAD8B200F020FA9B
:10246000181200F01DFAD8B200F01AFA274988892C
:1024700000F01CFA201200F013FAE0B200F010FA9B
:10248000201200F00DFAE0B200F00AFA36E01F4820
:10249000808846F6040188421DD11C4880790128B5
:1024A00004D11A480088401EC01A83B217494889CF
:1024B00000F0FCF9181200F0F3F9D8B200F0F0F9CE
:1024C0001249888900F0F2F9201200F0E9F9E0B22F
:1024D00000F0E6F912E00D488079012804D10B489C
:1024E0000088401EC01A83B208494889194600F086
:1024F000EDF906498889214600F0E8F9034800898A
:1025000003490880881C058030BD000014030020AA
:10251000FE07006C2DE9FC4F05460E46174698460F
:10252000DDF82C90002001902748808846F60401B1
:10253000884229D124488079012825D1AB463546E7
:1025400021480088C01B401E86B247461E480088AE
:10255000A0EB0B00401E1FFA80F800201A4988717A
:102560002A2048812B20888143463A463146284616
:10257000CDF80090FFF7CEFF0120134988712B2082
:1025800048812A2088811CE0781B401C80B2019081
:10259000344614E02146284600F01AF800F08CF981
:1025A0004FF0000A06E00948A0F800900AF1010087
:1025B0001FFA80FA01988245F5DB601C84B244451D
:1025C000E8DDBDE8FC8F0000140300200008006C6B
:1025D00010B503460C466748808849F2413188426D
:1025E00005D06448808845F21031884214D1614991
:1025F000488900F05BF9181200F052F9D8B200F0E7
:102600004FF95C49888900F051F9201200F048F92F
:10261000E0B200F045F9ABE05648808846F6040188
:1026200088421DD153488079012804D1514800883F
:10263000401EC01A83B24F49488900F037F918127A
:1026400000F02EF9D8B200F02BF94A49888900F041
:102650002DF9201200F024F9E0B200F021F987E012
:102660004448808841F66311884247D141488079C7
:10267000A8B940480088401EC01A83B23D49488925
:1026800000F014F9002000F00BF9002000F008F928
:10269000181200F005F9D8B200F002F916E0354939
:1026A000488900F003F9181200F0FAF8D8B200F0E7
:1026B000F7F830490988491EC1F30F2000F0F0F8FF
:1026C0002C490978491EC8B200F0EAF829498889DE
:1026D00000F0ECF8201200F0E3F8E0B200F0E0F8CF
:1026E00024494988491EC1F30F2000F0D9F8214937
:1026F0008978491EC8B200F0D3F839E01D488088B7
:1027000045F21051884220D11A49488900F0CEF88C
:10271000181200F0C5F817494989491C88B200F021
:10272000C5F8D8B200F0BCF81249888900F0BEF8AC
:10273000201200F0B5F80F498989491C88B200F0D1
:10274000B5F8E0B200F0ACF812E00A488079012850
:1027500004D108480088401EC01A83B20549488940
:10276000194600F0B3F803498889214600F0AEF815
:1027700010BD0000140300202DE9F84F80460E46DE
:1027800017461C46B3462046E31704EB5373DB1091
:1027900021464FEAE47C04EB5C7C4FEAEC0CA4EBB2
:1027A000CC0CBCF1000F02D04FF0010C01E04FF057
:1027B000000C6344224604EBD27C4FEA6C0C03FB12
:1027C0000CF3DBB20093A7F12000C7B2002556E05E
:1027D0000C2C07D107EB47002B4901EB800010F8C8
:1027E000059013E0102C05D1284800EB071010F8D5
:1027F00005900BE0182C07D107EBC700244901EB2B
:10280000800010F8059001E0BDE8F88F4FF0000A55
:102810002FE009F0800030B11E4802883146404662
:10282000FFF7BAFD07E00A9828B91B48028831462D
:102830004046FFF7B1FD4FEA49604FEA1069701C4E
:1028400086B216484088B04200DCDDE7A6EB0B00FC
:10285000A0420AD15E4608F101001FFA80F80F4835
:102860000088404500DCCFE706E00AF1010000F0F7
:10287000FF0ABAF1080FCCDB00BF681CC5B2009894
:102880008542A5DB00BFBFE74C790008C07D00088A
:10289000B08300081E000020200000201403002048
:1028A00001490880704700000008006C0149088059
:1028B00070470000FE07006C02480089024908804A
:1028C0007047000014030020FE07006C024A1080CD
:1028D000921C118070470000FE07006C08B50121B2
:1028E000482000F099F82020ADF8000010208DF865
:1028F000030003208DF8020069460948FFF71EFB1C
:1029000020210748FFF7A5FB2020ADF8000069460D
:102910000448FFF713FB20210248FFF79AFB08BD8C
:10292000000C01400018014000BFFEE770470000A6
:1029300070B5002100230F22C47804B3154C24681D
:1029400004F4E064C4F5E064210AC1F10403CA4060
:10295000447804FA03F184781440214309010E4CB1
:102960000678A155047804F01F050124AC400578D1
:102970006D11AD0005F1E025C5F8004109E00478CE
:1029800004F01F050124AC40044D0678761145F88B
:10299000264070BD0CED00E000E400E080E100E0C6
:1029A00002490143024A1160704700000000FA0525
:1029B0000CED00E07047000029B1064A526902435D
:1029C000044B5A6104E0034A52698243014B5A6145
:1029D000704700000010024029B1064AD269024344
:1029E000044BDA6104E0034AD2698243014BDA61A5
:1029F000704700000010024029B1064A12690243E4
:102A0000044B1A6104E0034A12698243014B1A61C4
:102A1000704700000010024029B1064A9269024343
:102A2000044B9A6104E0034A92698243014B9A6124
:102A3000704700000010024029B1064AD2680243E4
:102A4000044BDA6004E0034AD2688243014BDA6047
:102A5000704700000010024030B500210022002421
:102A600000232D4D6D6805F00C0121B1042905D01E
:102A7000082923D105E0294D056022E0274D056096
:102A80001FE0254D6D6805F47012234D6D6805F447
:102A90008034022505EB92421CB9214D5543056057
:102AA0000BE01D4D6D6805F400351DB11C4D5543FF
:102AB000056002E0194D5543056002E0174D0560C1
:102AC00000BF00BF144D6D6805F0F0010909154DF8
:102AD0006B5C0568DD4045600F4D6D6805F4E06195
:102AE000090A104D6B5C4568DD4085600A4D6D68D4
:102AF00005F46051C90A0B4D6B5C4568DD40C5604B
:102B0000054D6D6805F44041890B074D6B5CC56848
:102B1000B5FBF3F5056130BD0010024000127A00EC
:102B200000093D0038000020480000207CB5054623
:102B3000002400200090019000260DB1022600E044
:102B400000262248406900F0007008B10E207CBDCC
:102B50001F49098888B26946FFF726F904460CB177
:102B60002046F4E7019800F4802060B318480088FC
:102B70000004184908603720486040208860002021
:102B8000C8604FF480600861084600F0A1F8372063
:102B9000FEF754FF04460CB12046D8E70D48066006
:102BA00006200C494860402088600020C8604FF42F
:102BB00080600861084600F08BF80620FEF73EFFB3
:102BC00004462046C3E72520C1E7000000800140FD
:102BD000280000204003002001498863704700005E
:102BE000008001400149086070470000A0003042A9
:102BF0000146034A506820F0FF00084350607047C8
:102C00000080014001490860704700008C05304297
:102C100000210A4B02685A6242689A621A46D16AD7
:102C200021F0F701D0E902231A4303691A434369EB
:102C30001A431143014AD1627047000000800140ED
:102C400000200649086048608860C8604862886261
:102C5000C862034888630020C86370470080014051
:102C6000FF07C00001460020034A526B0A400AB128
:102C7000012000E000207047008001400248006809
:102C800000F00300704700000080014010B500F024
:102C900053FC10BD00210A4A516847F6FF62914378
:102CA000027D83681A4343681A43C3681A43036862
:102CB0001A4303691A431143014A516070470000E7
:102CC000008001400148006870470000808001409A
:102CD0000021094B02689A601A46D1686FF30A0115
:102CE000D0E901231A43C3681A4303691A43114305
:102CF000014AD16070470000008001400549096821
:102D000021F00301034A1160114609680143116073
:102D100070470000008001400149086070470000D2
:102D20008080014070B58CB006460C4615460121E6
:102D30000220FFF741FE1348FEF770FF0021114803
:102D4000FEF760FF1048019002960395A0080490DA
:102D50000020059080200690800007908000089059
:102D6000002009904FF400500A9000200B9001A918
:102D70000448FEF7F9FF00210248FEF743FF0CB0BC
:102D800070BD0000440402408080014070B50446DC
:102D9000002516480078032801D1272070BD13486C
:102DA000007838B111480078012803D00F48007826
:102DB000022818D1022C01D32720EFE7E0B2FFF759
:102DC000B5FE05467DB90A48406820F4C050084960
:102DD000486008464068A1B240EAC1200449486002
:102DE0000846406848602846D8E7000024000020D4
:102DF00000800140F0B5014600200022BE4B1B7848
:102E000081F85630BD4B1B88A1F85430BC4B1B6871
:102E10001A0E93090B70C2F383034B7002F0030385
:102E20008B70B74B1B68C3F30742CA70B44B1B8847
:102E3000C3F307220A71B24B1A784A715B681A0E03
:102E40001301CB80AE4B5B68C3F30742CB8843EAE8
:102E50001213CB8002F00F030B72A94B9B88C3F3B4
:102E60000722D3094B72C2F380138B72C2F3401353
:102E7000CB72C2F300130B7300234B739E4B1B7872
:102E80003BB19D4B1B78012B03D09B4B1B78032B35
:102E90004FD193071B0D0B61994B1A790B6943EACC
:102EA00082030B61964B9B681A0E0B6943EA9213DF
:102EB0000B61C2F3C2030B7502F007034B75904B15
:102EC0009B68C3F3074253098B75C2F38203CB752A
:102ED00093075B0F0B768A4B1B89C3F307220B7E8C
:102EE00043EAD2130B760B695B1C0024C1E9123450
:102EF0000B7E9B1C012404FA03F3DC17D1E9125664
:102F0000A5FB037C06FB03C305FB0433C1E9127375
:102F10000C7A0123A3400B650024D1E912650B6DE7
:102F2000A6FB037C05FB03C306FB0433C1E9127354
:102F30002EE0714B1B78022B2AD1714B1A79930624
:102F40009B0A0B616E4B9B681A0E0B6943EA0223C6
:102F50000B616B4B9B68C3F307420B6913430B6117
:102F6000674B1B89C3F307220B695B1C4FF400748A
:102F7000A3FB04464FF480630025A4FB037C06FBFF
:102F800003C304FB0533C1E912734FF400730B65EF
:102F9000C2F3801301F8193F93065B0E4B70584B38
:102FA0001A7A4B7843EAD2134B7002F07F038B708E
:102FB000534BDB681A0ED309CB70C2F341130B716C
:102FC000C2F382034B7193071B0F8B714C4BDB6871
:102FD000C3F307428B7943EA92138B71C2F3401318
:102FE000CB7100230B7202F001034B72444B9B899F
:102FF000C3F30722D3098B72C2F38013CB72C2F3DF
:1030000040130B73C2F300134B73C2F381038B7332
:1030100002F00303CB733A4B1A7B53080B74012362
:103020004B74384B1B681A0ECA741939354B1B6820
:10303000C3F307421402CC85324B1B88C3F307222B
:10304000CB8D1343CB852F4B1A7814060C635B682A
:103050001A0E0B6B43EA02440C632A4B5B68C3F302
:1030600007420B6B43EA02240C63264B9B88C3F395
:1030700007220B6B13430B63224B1A7934235A54E8
:10308000204B9B681A0E35235A541E4B9B68C3F382
:10309000074214068C631B4B1B89C3F307228B6BFF
:1030A00043EA02448C63174B1A7A8B6B43EA02247F
:1030B0008C63144BDB681A0E8B6B13438B63114BC1
:1030C000DB68C3F307423C235B5C43EA12143C23F6
:1030D0005C5413071C0DCC870A4B9B89C3F3072252
:1030E000CB8F1343CB87074B1A7B540840235C5488
:1030F000012441235C54F0BD24000020280000205E
:103100006C0300207C0300207CB5002500240121F5
:103110003020FFF781FC012140F20240FFF74CFC18
:103120004FF4F850ADF8000018208DF8030003208C
:103130008DF8020069463048FEF700FF0420ADF824
:10314000000018208DF8030003208DF80200694666
:103150002A48FEF7F3FE8020ADF8000048208DF8E5
:10316000030003208DF8020069462448FEF7E6FEBE
:10317000FFF766FD31208DF8040000208DF8050072
:103180008DF8060001208DF8070001A8FFF7D0FB9D
:1031900000F0E4F8044614B900F036F804461CB90F
:1031A0001748FFF727FE044634B91549B1F8541003
:1031B000080400F04FFD04461CB90120FFF7E6FDAE
:1031C00004461CB10F480078032812D10C4890F82F
:1031D000560020B10A4890F85600012801D10A256E
:1031E00000E004252846FFF703FD002000F04AFD1B
:1031F000044620467CBD0000001001400014014040
:10320000900300202400002038B500240120009005
:10321000FFF734FD08B9252038BD4A480078042856
:1032200021D000204849086002204860C020886002
:103230000020C8604FF4806008610846FFF748FD31
:10324000FEF72CFC04460CB12046E5E73F484069F8
:103250003F4908603D48806948603C48C0698860D3
:103260003A48006AC8603748007858B13548007855
:10327000012807D033480078062803D03148007869
:10328000022816D100203049086003204860402001
:1032900088600020C8604FF4806008610846FFF72E
:1032A00017FD69460320FEF73FFC04460CB120469B
:1032B000B2E724480078032816D1BDF800000004C6
:1032C0002149086003204860402088600020C860D1
:1032D0004FF4806008610846FFF7FAFCFEF7DEFB5A
:1032E00004460CB1204697E716480078042827D0FA
:1032F000BDF8000017490860BDF80000000412493D
:10330000086009204860C02088600020C8604FF431
:10331000806008610846FFF7DBFCFEF7BFFB044650
:103320000CB1204678E7094840690B490860074816
:10333000806948600548C06988600448006AC860C0
:10334000002069E7240000204003002000800140A5
:103350007C030020280000206C0300202DE9F047AA
:103360000027002400260025A046A146B2206C4973
:1033700008750020086048608860C86008610846D9
:10338000FFF788FC0320FFF7B9FC0120FFF72AFCB8
:1033900000BF12E000206349086048608860C86090
:1033A0004FF4806008610846FFF792FCFEF72DFBA2
:1033B000044604B903E0781CC7B24A2FEADB00BF19
:1033C00014B12046BDE8F0874FF4D5705549086028
:1033D00008204860402088600020C8604FF480606A
:1033E00008610846FFF774FCFEF7E6FB044624B9C3
:1033F00001204D4908704FF080490020494908607C
:1034000037204860402088600020C8604FF480600A
:1034100008610846FFF75CFC3720FEF70FFB044607
:10342000002C4BD134E000203E4908603720486032
:10343000402088600020C8604FF480600861084622
:10344000FFF746FC3720FEF7F9FA04460CB1204698
:10345000B8E7364849EA0000324908602920486048
:10346000402088600020C8604FF4806008610846F2
:10347000FFF72EFCFEF73CFB04460CB12046A1E70B
:103480002B484669012080EAD67080F001086D1C47
:10349000B8F1000F03D14FF6FF708542C3D34FF64A
:1034A000FF70854202D31B2420468BE706F0804044
:1034B000060032D002201C4908702EE01CE01D4896
:1034C0001849086001204860402088600020C860DA
:1034D0004FF4806008610846FFF7FAFBFEF708FB2F
:1034E00004460CB120466DE711484669012080EA88
:1034F000D67080F001086D1CB8F1000F03D14FF6B3
:10350000FF708542DBD34FF6FF70854202D31B2448
:10351000204657E7032004490870204652E7000080
:103520002803002040030020240000200000108019
:10353000008001400080FF8010B54948406B00F4D6
:10354000807070B347480078012814D100204649A4
:1035500008600C204860402088600020C8604FF45C
:10356000806008610846FFF7B3FB0C20FEF766FA9F
:103570003E49087002E000203C4908703848806BE2
:1035800040F48070364988630846C06B4CF23A318B
:1035900088433349C86301203549087033480078AF
:1035A00010BDFFE70220FFF75DFB68B10220FFF7C7
:1035B00013FB2B48C06B4CF23A3188432849C8634F
:1035C00002202A490870EBE70820FFF74BFB68B19F
:1035D0000820FFF701FB2248C06B4CF23A318843C8
:1035E0001F49C863042021490870D9E72020FFF74C
:1035F00039FB68B12020FFF7EFFA1948C06B4CF295
:103600003A3188431649C863062018490870C7E74D
:103610001020FFF727FB68B11020FFF7DDFA1048F4
:10362000C06B4CF23A3188430D49C86305200F49FD
:103630000870B5E74FF40070FFF714FB70B14FF45A
:103640000070FFF7C9FA0648C06B4CF23A31884364
:103650000349C863072005490870A1E700209FE7D8
:10366000008001402D000020400300202E0000209B
:103670002F0000202DE9F84F8146174698460A9CF6
:103680004FF0000AD3464D464FF0FF36B9F1000F18
:1036900002D12620BDE8F88F00208249C862824806
:1036A0000078022805D10402780A40EAC8574FEA98
:1036B000682800207D4988604860401E086001201D
:1036C00048610020C86008610846FFF7A1FA754804
:1036D000406900F0007008B10E20DBE7002C21DD0E
:1036E000B4F5006F1EDC601E2040D8B9204602F001
:1036F000D1FA00906E48046010206D494860402067
:1037000088600020C8604FF4806008610846FFF7B9
:10371000DFFA1020FEF792F98246BAF1000F03D0CB
:103720005046B7E72620B5E7009800015F4988605A
:10373000084644604FF0FF300860012048610220D5
:10374000C860002008610846FFF762FA5848076021
:10375000112057494860402088600020C8604FF41D
:10376000806008610846FFF7B3FA1120FEF766F99A
:103770008246BAF1000F01D050468BE74D480078E1
:1037800000285AD1FEF7DAFC18E04FF40040FFF7AA
:1037900069FA78B14FF0000B06E0424880300068CB
:1037A00045F82B000BF1010BBBF1080FF5D32035C9
:1037B000414E03E00EB904206CE7761E3948406B99
:1037C00040F22A6108400028DFD00820FFF74AFABB
:1037D00020B10820FFF700FA04205BE70220FFF782
:1037E00041FA20B10220FFF7F7F9022052E720202A
:1037F000FFF738FA20B12020FFF7EEF9062049E75D
:103800004FF40070FFF72EFA28B14FF40070FFF765
:10381000E3F907203EE703E0FFF754FA28602D1D87
:103820004FF40010FFF71EFA0028F5D1FEF788FCD0
:1038300040F2FF50FFF7D0F931E01E480078012830
:103840002DD1002221464846FFF76CFA00201B4983
:1038500008701B4908701B4908701248C06B40F281
:103860002A3108430F49C8630120FFF7CBF900E074
:10387000761E1548006800F4005038B911480078E9
:1038800020B90E48007808B9002EF1D10EB90420F5
:1038900000E70A48007810B1084890F800A05046A8
:1038A000F8E60000008001402400002054030020BE
:1038B000400300202C000020FFFF7F002E0000208E
:1038C0002D0000202F000020000402402DE9FE4FB3
:1038D00083460E469146002002900025344621483A
:1038E000007818B1680240EAD45564020BF0030076
:1038F000F0B14FF0000A18E04FF4007000904FEA6A
:103900004A20071945EBE0733A461748FFF7B2FE25
:1039100002904FF4007214495846FCF7EEFE0BF586
:10392000007B0AF1010000F0FF0ACA45E4DB16E063
:10393000B9F1010F09D14FF4007022462B460090D7
:103940005846FFF797FE029009E04FF400702246B8
:103950002B46CDE90009584600F008F8029002987D
:10396000BDE8FE8F24000020E80300202DE9FF5F62
:1039700017469846DDE90E464FF00009CA464FF05B
:10398000FF35A949009808600020A849C862A848E6
:103990000078022805D10402780A40EAC8574FEAA5
:1039A00068280020A34988604860401E0860012004
:1039B00048610020C86008610846FFF729F99B4864
:1039C000406900F0007018B10E2004B0BDE8F09F0F
:1039D000002C21DDB4F5006F1EDC601E2040D8B93C
:1039E000204602F057F9834693480460102092491C
:1039F0004860402088600020C8604FF48060086103
:103A00000846FFF765F91020FEF718F88146B9F16E
:103A1000000F03D04846D8E72620D6E7012E70D9FC
:103A200006FB04F0B0F1007F01D32620CDE74FEA7A
:103A30000B108049886006FB04F048604FF0FF30AF
:103A40000860012048610220C86000200861084623
:103A5000FFF7DEF878480760122077494860402079
:103A600088600020C8604FF4806008610846FFF756
:103A70002FF91220FDF7E2FF8146B9F1000F01D0C6
:103A80004846A2E76D48007800287DD1FEF756FB36
:103A90001EE04FF40040FFF7E5F8A8B14FF0000A30
:103AA00008E06248803000685F49096841F82A00F0
:103AB0000AF1010ABAF1080FF3D35B48006820301D
:103AC000594908605E4D03E00DB904207DE76D1E85
:103AD0005648406B40F22A3108400028D9D00820CF
:103AE000FFF7C0F820B10820FFF776F804206CE754
:103AF0000220FFF7B7F828B10220FFF76DF8022087
:103B000063E78EE02020FFF7ADF820B12020FFF71B
:103B100063F8062059E74FF40070FFF7A3F828B1C7
:103B20004FF40070FFF758F807204EE709E0FFF761
:103B3000C9F83D49096808603B480068001D3A49DA
:103B400008604FF40010FFF78DF80028EFD14FF414
:103B50008070FFF787F820B33548007838B13448D3
:103B60000078012803D032480078022819D10020BB
:103B7000314908600C204860402088600020C860FF
:103B80004FF48060086100E012E00846FFF7A0F8FB
:103B90000C20FDF753FF8146B9F1000F01D04846D4
:103BA00013E7FEF7CDFA40F2FF50FFF715F838E0C3
:103BB00022480078012834D106FB04F10022009845
:103BC000FFF7B0F800201F49087001201E49087057
:103BD00000201E4908701548C06B40F22A31084386
:103BE0001249C8630846C06A40F00800C86200E095
:103BF0006D1E1748006800F4005008B9002DF7D179
:103C00000DB90420E1E600BF1048007818B90D484E
:103C100000780028F8D00B48007810B1094890F8D7
:103C200000904846D1E600003000002000800140AE
:103C30002400002054030020400300202C0000201A
:103C4000FFFF7F002E0000202D0000202F0000200D
:103C50000004024010B504460948046007200849E2
:103C60004860402088600020C8604FF48060086190
:103C70000846FFF72DF80720FDF7E0FE10BD000015
:103C80004003002001460020012900D011B9024B59
:103C9000197000E0262070472C0000202DE9FF5FFE
:103CA00086B017469846149D002600200590049083
:103CB000002481460390824602900195DDF818B0F9
:103CC000DDF818B0BBF1000F03D126200AB0BDE823
:103CD000F09F0020C449C862C44988604860401E03
:103CE0000860012048610020C86008610846FEF7AE
:103CF0008FFFBD48406900F0007008B10E20E5E775
:103D0000BB480078022805D10502780A40EAC85766
:103D10004FEA6828002D1FDDB5F5006F1CDC681E1A
:103D20002840C8B9284601F0B5FF0590B1480560A4
:103D30001020B0494860402088600020C8604FF4DF
:103D4000806008610846FEF7C3FF1020FDF776FE8D
:103D500006461EB13046B9E72620B7E7A6480088D8
:103D60000004A44908600D204860402088600020BD
:103D7000C8604FF4806008610846FEF7A9FF0D2077
:103D8000FDF75CFE06460EB130469FE79648406957
:103D900003904FF0FF341BE0641E97480088000436
:103DA000944908600D204860402088600020C86069
:103DB0004FF4806008610846FEF78AFF0D20FDF78A
:103DC0003DFE06460EB1304680E7874840690390C5
:103DD000039800F4807008B9002CDDD10CB92920BB
:103DE00074E7844807601820824948604020886052
:103DF0000020C8604FF4806008610846FEF768FF45
:103E00001820FDF71BFE06460EB130465EE7002087
:103E10007A49087005980001744988600846456031
:103E20004FF0FF300860012048610020C860086141
:103E30000846FEF7EDFE4FF0FF3471480078002889
:103E40007BD1FEF77BF943E04FF48040FEF70AFF99
:103E5000C8B30198A0EB0900202821D20198A0EB5B
:103E6000090000F0030020B90198A0EB09008008C8
:103E700004E00198A0EB09008008401C02904FF07C
:103E8000000A09E0DBF80000FEF746FF0AF1010A2C
:103E90000BF1040B09F1040902988245F2D30FE0FB
:103EA0004FF0000A05E05BF82A00FEF735FF0AF143
:103EB000010ABAF1080FF6D30BF1200B09F1200922
:103EC0006FF0404404E0FFE70CB90420FEE6641EF6
:103ED0004548406B40F21A6108400028B4D00820E1
:103EE000FEF7C0FE20B10820FEF776FE0420EDE6C6
:103EF0000220FEF7B7FE20B10220FEF76DFE022081
:103F0000E4E61020FEF7AEFE20B11020FEF764FEBE
:103F10000520DBE64FF40070FEF7A4FE30B14FF44D
:103F20000070FEF759FE0720D0E606E0FEF708F91C
:103F300040F2FF502C4988633EE031480078012868
:103F40003AD1102229460698FEF7ECFE00202D49B2
:103F500008702A4908702C4908702348C06B40F249
:103F60001A3108432049C8630846C06A40F0080077
:103F7000C86200E0641E2548006800F4005008B9DB
:103F8000002CF7D11CB9FFF7BFF804209EE64FF0D4
:103F9000FF3400E0641E1C48007820B919480078FE
:103FA00008B9002CF6D10CB904208FE6154800782A
:103FB00010B11448007889E640F2FF50FEF70CFE7D
:103FC00004A8FEF7BFF8064603E004A8FEF7BAF817
:103FD00006463EB99DF810000728F6D09DF810005F
:103FE0000628F2D0304671E60080014054030020DC
:103FF0002400002040030020280000202D00002085
:104000002C0000202E0000202F0000200004024081
:104010002DE9FE4F06468946924600200290002573
:104020004C462148007818B1680240EAD455640231
:1040300006F00300F0B14FF0000B18E04FF40072EF
:1040400031461A48FCF759FB4FF4007000904FEAD4
:104050004B20071945EBE0733A461448FFF71EFE64
:10406000029006F500760BF1010000F0FF0BD3453E
:10407000E4DB16E0BAF1010F09D14FF400702246DB
:104080002B4600903046FFF709FE029009E04FF4FE
:10409000007022462B46CDE9000A304600F008F8B1
:1040A00002900298BDE8FE8F24000020E803002063
:1040B0002DE9FF5F84B0DDE9124700260020039060
:1040C0000290002580468146019007FB04FBDDF845
:1040D00010A0DDF810A0BAF1000F03D1262008B01F
:1040E000BDE8F09F0020D849C862D8498860486080
:1040F000401E0860012048610020C8600861084631
:10410000FEF786FDD048406900F0007008B10E202F
:10411000E5E7CF480078022808D10402DDE906016E
:10412000400A40EAC1504912CDE90601002C1FDDCA
:10413000B4F5006F1CDC601E2040C8B9204601F0B9
:10414000A9FD0390C34804601020C2494860402084
:1041500088600020C8604FF4806008610846FEF760
:10416000B7FD1020FDF76AFC06461EB13046B6E7E3
:104170002620B4E7012F6FD907FB04F0B0F1007FD0
:1041800001D32620ABE7B248007838B1B0480078B8
:10419000012803D0AE48007802282DD1AE4800880F
:1041A0000004AC4908603720486040208860002047
:1041B000C8604FF4806008610846FEF789FD37202B
:1041C000FDF73CFC06460EB1304688E7A148076083
:1041D0001720A0494860402088600020C8604FF444
:1041E000806008610846FEF773FD1720FDF726FC86
:1041F00006460EB1304672E79649069808601920C7
:104200004860402088600020C8604FF480600861EA
:104210000846FEF75DFD1920FDF710FC06460EB1BD
:1042200030465CE7039800018849886007FB04F08A
:1042300048604FF0FF300860012048610020C860EE
:1042400008610846FEF7E4FC84480078002871D134
:10425000451EFDF773FF40E0DEE07B48406B00F455
:104260008040A8B3ABEB080020281ED2ABEB0800BF
:1042700000F0030018B9ABEB0800800803E0ABEBDB
:1042800008008008401C01904FF0000909E0DAF8AE
:104290000000FEF741FD09F101090AF1040A08F1E5
:1042A000040801988145F2D30FE04FF0000905E0C2
:1042B0005AF82900FEF730FD09F10109B9F1080F9C
:1042C000F6D30AF1200A08F120086FF0404504E017
:1042D000FFE70DB9042002E76D1E5B48406B40F21A
:1042E0001A3108400028B8D00820FEF7BBFC20B1E6
:1042F0000820FEF771FC0420F1E60220FEF7B2FC74
:1043000020B10220FEF768FC0220E8E61020FEF74C
:10431000A9FC20B11020FEF75FFC0520DFE64FF47A
:104320000070FEF79FFC30B14FF40070FEF754FCB4
:104330000720D4E62CE04FF48070FEF793FC00B326
:104340004348007838B142480078012803D04048FB
:104350000078022815D100203E4908600C204860F2
:10436000402088600020C8604FF4806008610846E3
:10437000FEF7AEFC0C20FDF761FB06460EB13046A1
:10438000ADE6FDF7DDFE40F2FF50FEF725FC43E011
:104390003248007801283FD107FB04F1102204982D
:1043A000FEF7C0FC00202E49087001202D4908703E
:1043B00000202D4908702448C06B40F21A31084390
:1043C0002149C8630846C06A40F00800C8624FF03F
:1043D000FF3500E06D1E2548006800F4005008B964
:1043E000002DF7D11DB9FEF78FFE042077E64FF0C0
:1043F000FF3500E06D1E1C48007820B91848007891
:1044000008B9002DF6D10DB9042068E614480078EB
:1044100010B11348007862E640F2FF50FEF7DCFB73
:1044200002A8FDF78FFE064603E002A8FDF78AFE0C
:1044300006463EB99DF808000728F6D09DF808000A
:104440000628F2D030464AE600800140540300209E
:104450002400002040030020280000202C00002021
:104460002E0000202D0000202F000020000402401C
:1044700000B587B001210820FEF7CEFA012188039C
:10448000FEF7AAFA4FF46040ADF8180018208DF836
:104490001B0003208DF81A0006A91848FDF74EFDF1
:1044A0004FF460411548FDF7D4FD0020ADF804003D
:1044B0004FF48270ADF806000020ADF8080002202D
:1044C000ADF80A000120ADF80C004002ADF80E0076
:1044D0003820ADF810000020ADF812000720ADF82C
:1044E000140001A9064800F065F80121044800F015
:1044F00047F8FF2000F006F807B000BD000C0140AF
:104500000038004070B50546002405E0601CC4B2C8
:10451000C82C01DD002070BD02210E4800F03CF8DF
:104520000028F3D029460B4800F042F8002405E0AB
:10453000601CC4B2C82C01DD0020ECE70121054855
:1045400000F02AF80028F3D0024800F02EF8C0B29C
:10455000E1E700000038004010B504460748008835
:104560004FF6C77108400549088008460088204377
:1045700008800121014800F003F810BD0038004018
:1045800021B1028842F04002028004E002884FF626
:10459000BF731A40028070470246002013890B4007
:1045A0000BB1012000E00020704701468889704768
:1045B0008181704710B50022028802F441520B88B5
:1045C0004C8823438C882343CC8823430C89234382
:1045D0004C8923438C892343CC8923431A4302808B
:1045E000838B4FF2FF74234083830B8A038210BDB9
:1045F000704710B500F002F810BD00000CB50020A7
:10460000019000903348006840F4803031490860E0
:1046100000BF3048006800F4003000900198401C52
:104620000190009818B90198B0F5A06FF1D1294810
:10463000006800F4003010B10120009001E000207B
:1046400000900098012843D12348006840F01000F2
:10465000214908600846006820F003000860084609
:10466000006840F0020008601A4840681949486034
:104670000846406848600846406840F480604860EA
:104680000846406820F47C1048600846406840F4C2
:10469000E81048600846006840F08070086000BF7D
:1046A0000C48006800F000700028F9D00948406804
:1046B00020F00300074948600846406840F00200C7
:1046C000486000BF0348406800F00C000828F9D19A
:1046D0000CBD000000100240002002402DE9FF4FF9
:1046E00093B007460D461C46AA462046E21704EB47
:1046F0005272D2102146E31704EB5373DB10A4EB84
:10470000C3030BB1012300E000231A44624302F00B
:10471000FF0B0C2C06D0102C04D0182C02D017B094
:10472000BDE8F08F224601A91598FDF795FC0026FB
:104730002FE001A810F806804FF0000923E008F0F0
:10474000800030B11548028829463846FDF724FE1E
:1047500007E0209828B91248028829463846FDF714
:104760001BFE4FEA48604FEA1068681C85B2A5EB53
:104770000A00A04203D15546781C87B206E009F131
:10478000010000F0FF09B9F1080FD8DB00BF701C71
:10479000C6B25E45CDDB00BFC1E700001E000020B1
:1047A000200000202DE9FE4F07460E4691469A460E
:1047B000DDE90D4B0C9DB8460296002001904CE0BF
:1047C000019870BB2878802802DD0120019044E028
:1047D00004EBD47108EB0902A2EB6101B94202DAE1
:1047E000301986B2474602985044001BB04200DAA6
:1047F00036E028780D2804D1301986B247466D1C62
:1048000007E0CDF800B02A78234631463846FDF758
:10481000B3FF6D1C204604EBD07107EB61018FB232
:104820001BE0FFE70020019008EB0900001BB842E5
:1048300002DA301986B2474602985044001BB04253
:1048400000DA0DE023462A4631463846CDF800B05E
:10485000FFF744FFAD1C381987B228780028AFD184
:1048600000BFBDE8FE8F00002DE9FE4307468946E4
:1048700015461C46DDF8288000262846FBF71EFF5B
:1048800086B2204604EBD071491071438EB2464582
:104890000BDD0120CDE9005402900E4843880288C8
:1048A00049463846FFF77EFF11E0A8EB060000EB13
:1048B000D071C1F34F0601200649CDE900540290A2
:1048C0004B880A88F11988B24946FFF76BFFBDE8AB
:1048D000FE83000014030020042808D14FF0E021DB
:1048E000096941F004014FF0E022116107E04FF047
:1048F000E021096921F004014FF0E02211617047C5
:104900007047000010B51348006840F001001149DD
:10491000086008464068104908400E49486008464B
:1049200000680E4908400B4908600846006820F4FA
:10493000802008600846406820F4FE0048604FF47C
:104940001F008860FFF755FE4FF0006004490860C3
:1049500010BD0000001002400000FFF8FFFFF6FE4F
:1049600008ED00E010B501210A4800F07FF80128A9
:104970000AD10949086980470021064800F092F8E9
:104980006421044800F08CF80121024800F053F83B
:1049900010BD000000080040A400002010B5012157
:1049A000094800F063F868B10848008840F4004006
:1049B000064908800121044800F03DF80021024822
:1049C00000F03CF810BD000000140040340000204E
:1049D0007FB505460C4601212020FDF7FDFFADF80F
:1049E0000450ADF800400020ADF80600ADF802001C
:1049F00069460E4800F058F8012211460B4800F0B5
:104A000046F80121094800F019F837208DF80C000C
:104A100000208DF80D0002208DF80E0001208DF889
:104A20000F0003A8FDF784FF7FBD000000140040C5
:104A3000CA4302827047CA430282704721B102888A
:104A400042F00102028004E002884FF6FE731A4031
:104A5000028070470146888C704702460020138A06
:104A60000B400BB1012000E00020704730B502463A
:104A7000002000230024158A05EA0103958905EA30
:104A8000010413B10CB1012000E0002030BD1AB1C7
:104A900083890B43838102E083898B438381704741
:104AA0008185704781847047002202881D4B98429F
:104AB0000ED01D4B98420BD0B0F1804F08D01B4B4D
:104AC000984205D01A4B984202D01A4B984204D112
:104AD0004FF68F731A404B881A43174B984207D0F2
:104AE000164B984204D04FF6FF431A40CB881A4326
:104AF00002808B8883850B8803850A4B98420BD0F4
:104B0000094B984208D00E4B984205D00D4B984265
:104B100002D00D4B984201D10B7A03860123838288
:104B200070470000002C01400034014000040040A8
:104B300000080040000C004000100040001400403D
:104B40000040014000440140004801407FB5054657
:104B50000C4601210420FDF73FFFADF80850ADF8E9
:104B600004400020ADF80A00ADF8060001A90D4888
:104B7000FFF79AFF012241210A48FFF788FF1E2014
:104B80008DF8000003208DF801008DF8020001204F
:104B90008DF803006846FDF7CBFE01210148FFF7C1
:104BA0004DFF7FBD0008004010B540F225511D4863
:104BB00000F0DDF810B31B4800F094F9C4B21A48B5
:104BC000008800F40040C8B91748008800F480400D
:104BD00060B10A2C03D000201349088020E012485D
:104BE000008840F400401049088019E00D2C06D1DF
:104BF0000D48008840F480400B49088010E00A48C6
:104C00000088C0F30D0009490C5407480088401C77
:104C10000549088008460088C72801DD0020088073
:104C200010BD0000003801401C0000204C02002094
:104C300010B540F22551164800F099F8F8B1144823
:104C400000F050F9C4B21348008800F40040B0B935
:104C500010480088B0F5167F12DA00210E48FFF7E1
:104C600021FF0C48008818B901210B48FFF7E6FE28
:104C700008490888411C074A118008490C5405E07E
:104C80000448008840F400400249088010BD00003C
:104C9000004800403400002000140040E8050020D7
:104CA00021B1828942F40052828104E082894DF66A
:104CB000FF731A408281704710B504462048844231
:104CC00009D101218803FDF7B7FE00214FF4804090
:104CD000FDF7B2FE32E01B48844209D101214804AD
:104CE000FDF78AFE00214FF40030FDF785FE25E038
:104CF0001548844209D101218804FDF77DFE002179
:104D00004FF48020FDF778FE18E01048844209D166
:104D10000121C804FDF770FE00214FF40020FDF7CB
:104D20006BFE0BE00A48844208D101210805FDF71B
:104D300063FE00214FF48010FDF75EFE10BD000001
:104D4000003801400044004000480040004C004052
:104D50000050004002460020B1F5007F00D100BFA6
:104D600013880B400BB1012000E00020704770B5A4
:104D70000246002400230025002040F66A16B142B6
:104D800000D100BFC1F3421501F01F03012606FA4E
:104D900003F3012D02D19689334006E0022D02D1A2
:104DA000168A334001E0968A33400C12012606FA37
:104DB00004F41688344013B10CB1012000E0002047
:104DC00070BDF0B50346002400260025002040F603
:104DD0006A17B94200D100BF1846C1F3421401F06E
:104DE0001F06012707FA06F5012C01D10C3004E05B
:104DF000022C01D1103000E014301AB107682F43A3
:104E0000076002E00768AF430760F0BD2DE9F04797
:104E100086B005460E460024A24600BFA1460027E4
:104E2000B08900B100BF2F462C8A4CF6FF700440B9
:104E3000F08804432C82AC894EF6F3100440B0880D
:104E400031890843718908430443AC81AC8A4FF629
:104E5000FF400440B0890443AC8201A8FDF7FCFD8B
:104E60001F48874202D1DDF810A001E0DDF80CA058
:104E7000A88900F4004040B10AEBCA0000EB0A1018
:104E800031684900B0FBF1F807E00AEBCA0000EB1B
:104E90000A1031688900B0FBF1F86420B8FBF0F02B
:104EA00004012009642101FB1089A88900F4004055
:104EB00040B1322000EBC900B0FBF1F000F0070078
:104EC000044308E0322000EB09106421B0FBF1F04C
:104ED00000F00F0004432C8106B0BDE8F08700000D
:104EE0000038014001468888C0F308007047C1F3CC
:104EF00008028280704700BFFEE7000010B504463C
:104F0000214610A0FBF70CFA240300F017F900F07B
:104F1000AFF800200D4908602020FFF7F3FAC4F332
:104F20000740FFF7EFFAC4F30720FFF7EBFAE0B210
:104F3000FFF7E8FA01200649C1F8B00100F098F83F
:104F400010BD000066653A25780D0A00B081214247
:104F50000080214208B501210820FDF75DFD4FF4D6
:104F60008050ADF8000010208DF8030003208DF86C
:104F7000020069460A48FCF7E1FF4FF480510848F7
:104F8000FDF767F8012007490860FFF771FA002074
:104F9000FFF7E2FA00F032F80349088008BD00008C
:104FA000000C0140B0812142360000202DE9F04183
:104FB00006460C46174600200F4908600320FFF7FD
:104FC000A1FAC4F30740FFF79DFAC4F30720FFF7E7
:104FD00099FAE0B2FFF796FA002505E0FF20FFF707
:104FE00091FA7055681C85B2BD42F7DB0120024979
:104FF0000860BDE8F0810000B081214210B50024B6
:1050000000200E4908609020FFF77CFA0020FFF78F
:1050100079FA0020FFF776FA0020FFF773FAFF20F5
:10502000FFF770FA44EA0024FF20FFF76BFA04430D
:1050300001200349C1F8B001204610BDB0812142D2
:105040000080214210B50024002007490860052097
:10505000FFF758FAFF20FFF755FA044601200349ED
:10506000C1F8B001204610BDB0812142008021422C
:1050700010B500BFFFF7E6FF00F001000028F9D1EE
:1050800010BD00002DE9F05F81460F461646DFF89F
:10509000A8B04FEA1738C7F30B0ACAF58054A642E6
:1050A00000DC344644E04FEA08314FF48052584661
:1050B000FFF77CFF002508E00AEB05001BF8000065
:1050C000FF2800D003E0681C85B2A542F4DB00BFD6
:1050D000A54216DA4046FFF711FF002507E019F850
:1050E000050005EB0A010BF80100681C85B2A5421A
:1050F000F5DB4FEA08314FF48052584600F02EF8A5
:1051000004E022463946484600F028F8A64200D17D
:105110000FE008F101084FF0000AA1442744301BBA
:1051200086B2B6F5805F02DD4FF4805400E034466D
:10513000B9E700BFBDE8F09F980A002010B5002035
:10514000044908600620FFF7DDF901200249C1F893
:10515000B00110BDB0812142008021422DE9F04113
:1051600007460E461446F0B2C0F58075AC4200DC2E
:10517000254612E02A463146384600F013F8AC4284
:1051800000D10BE02F442E44601B84B2B4F5807F25
:1051900002DD4FF4807500E02546EBE700BFBDE877
:1051A000F08100002DE9F04106460C461746FFF756
:1051B000C5FF00200F4908600220FFF7A3F9C4F3E0
:1051C0000740FFF79FF9C4F30720FFF79BF9E0B210
:1051D000FFF798F9002504E0705DFFF793F9681C6C
:1051E00085B2BD42F8DB012002490860FFF740FFAD
:1051F000BDE8F081B0812142490050EAC12018BFCA
:1052000004204A0D18BF40F0010040F2FF72B2EBDB
:10521000515F08BF40F00200012808BF0520704719
:1052200030380A2801D2012070470020704701461B
:1052300000BF704710B504460A48008800F40040DB
:1052400070B1002007490988C1F30E01064A505485
:10525000114606A0FBF764F814B10020014908804C
:1052600010BD000034000020E80500202573000078
:1052700070B5044600250948008800F4004058B184
:10528000002006490988C1F30E01054A5054214601
:105290001046FBF701FA0546284670BD3400002091
:1052A000E805002070B500F055F908B1002070BD88
:1052B000322205A105A000F085F908A0FFF7D8FF6C
:1052C00005462C782046F2E73A00000041542B4373
:1052D0004950535441545553000000002B4349504A
:1052E0005354415455533A002DE9F05F81468A46A4
:1052F00093461C460026B04600254FF478403449BA
:10530000088034A03549086035A04860B4210020E9
:1053100000F06CF81F202E490880002020703248D1
:105320000068027829466D1C62542F48806A027812
:1053300029466D1C62542C48406A027829466D1C2F
:1053400062542948C069027829466D1C6254264877
:105350000068027829466D1C62542348406A02782E
:1053600029466D1C625420480068027829466D1C4D
:1053700062541D48006A02782946681CC5B262540E
:105380001948C06802782846691CCDB222541648D4
:10539000406A02782846691CCDB2225412488069BE
:1053A00002782846691CCDB222540F484069027821
:1053B0002846691CCDB222540E270E2F02D10DB102
:1053C000002060550120FFF735FF3046BDE8F09F13
:1053D0001E000020C1ACBDD3000000004002002030
:1053E000B7B5BBD8000000000C0200202DE9F8433F
:1053F00005460C464FF47840424908804FF6FF704E
:10540000009004F18C0083B205F1F00082B22146D5
:105410002846FDF77FF804F18C0083B205F1F00017
:1054200082B221462846FCF799FF04F18C018BB229
:1054300005F1A0018AB2503988B22146FCF78EFFEF
:1054400004F1380083B205F1F00082B204F11C00CF
:1054500081B22846FCF782FF04F1700083B205F1A7
:10546000F00082B204F1540081B22846FCF776FFC6
:105470001F2024490880002640E00D2E1DDA03205D
:1054800096FBF0F1A01D1C2202FB010087B2032055
:1054900096FBF0F100FB116000EB800005EB0010C3
:1054A0001FFA80F850200090174850F8262010234B
:1054B00039464046FFF7D8F91EE0032096FBF0F18D
:1054C000A01D1C2202FB010087B2032096FBF0F115
:1054D00000FB116000EB800005EB00101FFA80F864
:1054E00050200090A6F10D00084951F8202010230B
:1054F00039464046FFF7B8F9701C86B20F2EBCDB68
:10550000BDE8F8831E0000200C02002040020020AD
:105510002DE9F04781468A461446002600270025DB
:105520003221002001F03EF88046224605A1404687
:10553000FAF702FF01254146002001F021F8284634
:10554000BDE8F087257320B9A4D7F7C4A3CABDD19D
:10555000A1D4F10010B500BF1748008800F040004A
:105560000028F9D02B201449091D08800F2000F0D5
:10557000BDFB00BF1048008800F040000028F9D0B3
:105580002B200D49091D08800F2000F0AFFB00BF44
:105590000948008800F040000028F9D02B20064977
:1055A000091D08804FF4FA7000F0A0FB142203A13B
:1055B00003A000F007F810BD004800404F4B00006A
:1055C000415400002DE9F04106460D4614460027DF
:1055D000002013490880314612A001F02DF8E5B1F2
:1055E000DCB113E00A2000F081FB0D48008800F4D4
:1055F000004058B12846FFF73BFE20B129460BA0DA
:10560000FAF78EFE06E0002005490880601E80B291
:105610000400E7D100BF04B901273846BDE8F08196
:105620003400002025730D0A0000000061636B3A0E
:1056300025730D0A000000004FF4784019490880D6
:1056400006E0FFF787FFC82217A118A0FFF7BAFFEF
:10565000142215A119A0FFF7B5FF0028F1D100BF52
:10566000142211A116A0FFF7ADFF0028F8D117E012
:105670000A2000F03BFB0120FFF7DCFD00F0AAF858
:10568000142094FBF0F100FB114038B90E4800687B
:1056900008B9012000E000200B490860601CC4B27A
:1056A000E6E700001E0000204F4B000041542B4352
:1056B00049504D4F44453D3000000000415400002A
:1056C0004154453000000000948121422DE9FE4301
:1056D00005460C4616461F46DDE90A894FF4784018
:1056E0003449088000200C210B46F022CDE90061EE
:1056F000029021462846FFF755F800200C212EA2E3
:10570000CDE90021029004F1140081B20C23F022B3
:105710002846FFF747F800200C2129A2CDE90021F7
:10572000029004F1240081B20C23F0222846FFF7F6
:1057300039F800200C2125A2CDE90021029004F1C6
:10574000340081B20C23F0222846FFF72BF81F20EB
:105750001849088000200C2104F11402CDE90071E1
:10576000029091B205F11E0290B20C23F022FFF7D5
:1057700019F800200C2104F12402CDE900810290E7
:1057800091B205F1360290B20C23F022FFF70AF82D
:1057900000200C2104F13402CDE90091029091B275
:1057A00005F11E0290B20C23F022FEF7FBFFBDE8CC
:1057B000FE8300001E000020535349443A000000BD
:1057C000BCD3C3DCB7BDCABD3A000000C3DCC2EB2A
:1057D0003A00000088B000BF40F2E73400BF002567
:1057E00000BF2021002000F0DDFE064632229DA1F0
:1057F0009DA0FFF7E7FE14229AA19EA0FFF7E2FE0C
:10580000601C00F073FA601C00F070FA601C00F07D
:105810006DFA601C00F06AFA98480368984899A1EC
:1058200002683046FAF788FD00BF4FF496729AA1DD
:105830003046FFF7C7FE0028F7D100BF0120994985
:10584000087099481E2102683220FFF761FE9549D1
:1058500009780843934908700846007800F0020070
:1058600000282DD04FF6FF70FCF7D8FC4FF478409D
:105870008E4908808E488B4A127850F8221004AB6B
:105880008C4802688CA0FFF72FFD00B1D6E789484D
:1058900004AA8FA103683046FAF74EFDC82000F035
:1058A00025FA14226FA191A0FFF78CFE00BF4FF4E0
:1058B000FA726CA13046FFF785FE0028F7D17AE036
:1058C0007848007800F00100002848D07848754AF0
:1058D000127850F8221004AB7648026886A0FFF7D1
:1058E00003FD00B1AAE714225EA180A0FFF76AFEC3
:1058F0004FF47A7000F0FAF94FF47A7000F0F6F98C
:105900004FF47A7000F0F2F94FF47A7000F0EEF98B
:1059100041F6907304AA7DA13046FAF70DFD01E02F
:1059200000BF8BE7C8224FA13046FFF74BFE00288F
:10593000F6D1C8224BA17CA0FFF744FE4FF47A7049
:1059400000F0D4F94FF47A7000F0D0F94FF47A7087
:1059500000F0CCF94FF47A7000F0C8F92BE04FF664
:10596000FF70FCF75BFC4FF4784050490880F02052
:10597000102371A21E2100900020FEF775FF002069
:105980000C2173A21023CDE900210290C8223221FC
:105990001E20FEF707FF142232A175A0FFF712FEAA
:1059A000444876A102683046FAF7C6FC32222DA19F
:1059B0003046FFF707FE3F4804AA75A1036830464A
:1059C000FAF7BAFC2D48006876490968CDE900105D
:1059D0002B4875A2B42103681E20FFF777FE002034
:1059E000774908803CE000BFFFF7B4FD14221DA1F9
:1059F00074A0FFF7E7FD601C80B2044603462C4804
:105A00002849097850F8212071A13046FAF794FC12
:105A1000314675A000F010FE0A2000F067F96848D2
:105A2000008800F4004088B165480088C0F30E0586
:105A300000206E4948556CA0FAF772FC2A466CA10A
:105A40003046FAF779FC00205D49088042F2107078
:105A5000844202D1FFF726FC00240120FFF7EAFB75
:105A6000C1E700004F4B000041542B43574D4F44BA
:105A7000453D310041542B5253540000D0010020C9
:105A8000C801002041542B43574A41503D22257301
:105A9000222C2225732200005749464920474F54A3
:105AA0002049500049020020E00100201E00002093
:105AB000EC010020C4010020574946492D535441B0
:105AC00020D4B6B6CB554450204950C9E8D6C300BF
:105AD00041542B43495053544152543D2254435056
